{
  "address": "0xcAaC7E1E2E62Ab1743cc2950aCA81C08fAD81085",
  "abi": [
    {
      "inputs": [
        {
          "internalType": "address",
          "name": "priceFeedAddress",
          "type": "address"
        },
        {
          "internalType": "string",
          "name": "lowSvg",
          "type": "string"
        },
        {
          "internalType": "string",
          "name": "highSvg",
          "type": "string"
        }
      ],
      "stateMutability": "nonpayable",
      "type": "constructor"
    },
    {
      "anonymous": false,
      "inputs": [
        {
          "indexed": true,
          "internalType": "address",
          "name": "owner",
          "type": "address"
        },
        {
          "indexed": true,
          "internalType": "address",
          "name": "approved",
          "type": "address"
        },
        {
          "indexed": true,
          "internalType": "uint256",
          "name": "tokenId",
          "type": "uint256"
        }
      ],
      "name": "Approval",
      "type": "event"
    },
    {
      "anonymous": false,
      "inputs": [
        {
          "indexed": true,
          "internalType": "address",
          "name": "owner",
          "type": "address"
        },
        {
          "indexed": true,
          "internalType": "address",
          "name": "operator",
          "type": "address"
        },
        {
          "indexed": false,
          "internalType": "bool",
          "name": "approved",
          "type": "bool"
        }
      ],
      "name": "ApprovalForAll",
      "type": "event"
    },
    {
      "anonymous": false,
      "inputs": [
        {
          "indexed": true,
          "internalType": "uint256",
          "name": "tokenId",
          "type": "uint256"
        },
        {
          "indexed": false,
          "internalType": "int256",
          "name": "highValue",
          "type": "int256"
        }
      ],
      "name": "CreatedNFT",
      "type": "event"
    },
    {
      "anonymous": false,
      "inputs": [
        {
          "indexed": true,
          "internalType": "address",
          "name": "from",
          "type": "address"
        },
        {
          "indexed": true,
          "internalType": "address",
          "name": "to",
          "type": "address"
        },
        {
          "indexed": true,
          "internalType": "uint256",
          "name": "tokenId",
          "type": "uint256"
        }
      ],
      "name": "Transfer",
      "type": "event"
    },
    {
      "inputs": [
        {
          "internalType": "address",
          "name": "to",
          "type": "address"
        },
        {
          "internalType": "uint256",
          "name": "tokenId",
          "type": "uint256"
        }
      ],
      "name": "approve",
      "outputs": [],
      "stateMutability": "nonpayable",
      "type": "function"
    },
    {
      "inputs": [
        {
          "internalType": "address",
          "name": "owner",
          "type": "address"
        }
      ],
      "name": "balanceOf",
      "outputs": [
        {
          "internalType": "uint256",
          "name": "",
          "type": "uint256"
        }
      ],
      "stateMutability": "view",
      "type": "function"
    },
    {
      "inputs": [
        {
          "internalType": "uint256",
          "name": "tokenId",
          "type": "uint256"
        }
      ],
      "name": "getApproved",
      "outputs": [
        {
          "internalType": "address",
          "name": "",
          "type": "address"
        }
      ],
      "stateMutability": "view",
      "type": "function"
    },
    {
      "inputs": [
        {
          "internalType": "address",
          "name": "owner",
          "type": "address"
        },
        {
          "internalType": "address",
          "name": "operator",
          "type": "address"
        }
      ],
      "name": "isApprovedForAll",
      "outputs": [
        {
          "internalType": "bool",
          "name": "",
          "type": "bool"
        }
      ],
      "stateMutability": "view",
      "type": "function"
    },
    {
      "inputs": [
        {
          "internalType": "int256",
          "name": "highValue",
          "type": "int256"
        }
      ],
      "name": "mintNft",
      "outputs": [],
      "stateMutability": "nonpayable",
      "type": "function"
    },
    {
      "inputs": [],
      "name": "name",
      "outputs": [
        {
          "internalType": "string",
          "name": "",
          "type": "string"
        }
      ],
      "stateMutability": "view",
      "type": "function"
    },
    {
      "inputs": [
        {
          "internalType": "uint256",
          "name": "tokenId",
          "type": "uint256"
        }
      ],
      "name": "ownerOf",
      "outputs": [
        {
          "internalType": "address",
          "name": "",
          "type": "address"
        }
      ],
      "stateMutability": "view",
      "type": "function"
    },
    {
      "inputs": [
        {
          "internalType": "uint256",
          "name": "",
          "type": "uint256"
        }
      ],
      "name": "s_tokenIdToHighValue",
      "outputs": [
        {
          "internalType": "int256",
          "name": "",
          "type": "int256"
        }
      ],
      "stateMutability": "view",
      "type": "function"
    },
    {
      "inputs": [
        {
          "internalType": "address",
          "name": "from",
          "type": "address"
        },
        {
          "internalType": "address",
          "name": "to",
          "type": "address"
        },
        {
          "internalType": "uint256",
          "name": "tokenId",
          "type": "uint256"
        }
      ],
      "name": "safeTransferFrom",
      "outputs": [],
      "stateMutability": "nonpayable",
      "type": "function"
    },
    {
      "inputs": [
        {
          "internalType": "address",
          "name": "from",
          "type": "address"
        },
        {
          "internalType": "address",
          "name": "to",
          "type": "address"
        },
        {
          "internalType": "uint256",
          "name": "tokenId",
          "type": "uint256"
        },
        {
          "internalType": "bytes",
          "name": "data",
          "type": "bytes"
        }
      ],
      "name": "safeTransferFrom",
      "outputs": [],
      "stateMutability": "nonpayable",
      "type": "function"
    },
    {
      "inputs": [
        {
          "internalType": "address",
          "name": "operator",
          "type": "address"
        },
        {
          "internalType": "bool",
          "name": "approved",
          "type": "bool"
        }
      ],
      "name": "setApprovalForAll",
      "outputs": [],
      "stateMutability": "nonpayable",
      "type": "function"
    },
    {
      "inputs": [
        {
          "internalType": "bytes4",
          "name": "interfaceId",
          "type": "bytes4"
        }
      ],
      "name": "supportsInterface",
      "outputs": [
        {
          "internalType": "bool",
          "name": "",
          "type": "bool"
        }
      ],
      "stateMutability": "view",
      "type": "function"
    },
    {
      "inputs": [
        {
          "internalType": "string",
          "name": "svg",
          "type": "string"
        }
      ],
      "name": "svgToImageURI",
      "outputs": [
        {
          "internalType": "string",
          "name": "",
          "type": "string"
        }
      ],
      "stateMutability": "pure",
      "type": "function"
    },
    {
      "inputs": [],
      "name": "symbol",
      "outputs": [
        {
          "internalType": "string",
          "name": "",
          "type": "string"
        }
      ],
      "stateMutability": "view",
      "type": "function"
    },
    {
      "inputs": [
        {
          "internalType": "uint256",
          "name": "tokenId",
          "type": "uint256"
        }
      ],
      "name": "tokenURI",
      "outputs": [
        {
          "internalType": "string",
          "name": "",
          "type": "string"
        }
      ],
      "stateMutability": "view",
      "type": "function"
    },
    {
      "inputs": [
        {
          "internalType": "address",
          "name": "from",
          "type": "address"
        },
        {
          "internalType": "address",
          "name": "to",
          "type": "address"
        },
        {
          "internalType": "uint256",
          "name": "tokenId",
          "type": "uint256"
        }
      ],
      "name": "transferFrom",
      "outputs": [],
      "stateMutability": "nonpayable",
      "type": "function"
    }
  ],
  "transactionHash": "0x1a19fc74c22902a85d0fbf1c88c1204471a55f262fbf3c15c4d12d7b6ea2ac20",
  "args": [
    "0x8A753747A1Fa494EC906cE90E9f37563A8AF630e",
    "<?xml version=\"1.0\" standalone=\"no\"?>\n<svg width=\"1024px\" height=\"1024px\" viewBox=\"0 0 1024 1024\" xmlns=\"http://www.w3.org/2000/svg\">\n  <path fill=\"#333\" d=\"M512 64C264.6 64 64 264.6 64 512s200.6 448 448 448 448-200.6 448-448S759.4 64 512 64zm0 820c-205.4 0-372-166.6-372-372s166.6-372 372-372 372 166.6 372 372-166.6 372-372 372z\"/>\n  <path fill=\"#E6E6E6\" d=\"M512 140c-205.4 0-372 166.6-372 372s166.6 372 372 372 372-166.6 372-372-166.6-372-372-372zM288 421a48.01 48.01 0 0 1 96 0 48.01 48.01 0 0 1-96 0zm376 272h-48.1c-4.2 0-7.8-3.2-8.1-7.4C604 636.1 562.5 597 512 597s-92.1 39.1-95.8 88.6c-.3 4.2-3.9 7.4-8.1 7.4H360a8 8 0 0 1-8-8.4c4.4-84.3 74.5-151.6 160-151.6s155.6 67.3 160 151.6a8 8 0 0 1-8 8.4zm24-224a48.01 48.01 0 0 1 0-96 48.01 48.01 0 0 1 0 96z\"/>\n  <path fill=\"#333\" d=\"M288 421a48 48 0 1 0 96 0 48 48 0 1 0-96 0zm224 112c-85.5 0-155.6 67.3-160 151.6a8 8 0 0 0 8 8.4h48.1c4.2 0 7.8-3.2 8.1-7.4 3.7-49.5 45.3-88.6 95.8-88.6s92 39.1 95.8 88.6c.3 4.2 3.9 7.4 8.1 7.4H664a8 8 0 0 0 8-8.4C667.6 600.3 597.5 533 512 533zm128-112a48 48 0 1 0 96 0 48 48 0 1 0-96 0z\"/>\n</svg>\n",
    "<svg viewBox=\"0 0 200 200\" width=\"400\"  height=\"400\" xmlns=\"http://www.w3.org/2000/svg\">\n  <circle cx=\"100\" cy=\"100\" fill=\"yellow\" r=\"78\" stroke=\"black\" stroke-width=\"3\"/>\n  <g class=\"eyes\">\n    <circle cx=\"61\" cy=\"82\" r=\"12\"/>\n    <circle cx=\"127\" cy=\"82\" r=\"12\"/>\n  </g>\n  <path d=\"m136.81 116.53c.69 26.17-64.11 42-81.52-.73\" style=\"fill:none; stroke: black; stroke-width: 3;\"/>\n</svg>"
  ],
  "numDeployments": 2,
  "solcInputHash": "558bccdab5c224fce700ae7f198cfb9a",
  "bytecode": "0x60a06040523480156200001157600080fd5b506040516200390238038062003902833981810160405281019062000037919062000577565b6040518060400160405280600781526020017f535647204e4654000000000000000000000000000000000000000000000000008152506040518060400160405280600681526020017f5356474e465400000000000000000000000000000000000000000000000000008152508160009081620000b491906200085c565b508060019081620000c691906200085c565b5050508273ffffffffffffffffffffffffffffffffffffffff1660808173ffffffffffffffffffffffffffffffffffffffff16815250506200010e826200014a60201b60201c565b600790816200011e91906200085c565b5062000130816200014a60201b60201c565b600890816200014091906200085c565b5050505062000b1a565b60606000620001858360405160200162000165919062000985565b604051602081830303815290604052620001e860201b62000d5c1760201c565b90506040518060400160405280601a81526020017f646174613a696d6167652f7376672b786d6c3b6261736536342c00000000000081525081604051602001620001d19291906200099e565b604051602081830303815290604052915050919050565b606060008251036200020c5760405180602001604052806000815250905062000370565b6000604051806060016040528060408152602001620038c260409139905060006003600285516200023e9190620009f5565b6200024a919062000a81565b600462000258919062000ab9565b905060006020826200026b9190620009f5565b67ffffffffffffffff81111562000287576200028662000409565b5b6040519080825280601f01601f191660200182016040528015620002ba5781602001600182028036833780820191505090505b509050818152600183018586518101602084015b818310156200032b576003830192508251603f8160121c168501518253600182019150603f81600c1c168501518253600182019150603f8160061c168501518253600182019150603f8116850151825360018201915050620002ce565b600389510660018114620003485760028114620003595762000364565b613d3d60f01b600283035262000364565b603d60f81b60018303525b50505050508093505050505b919050565b6000604051905090565b600080fd5b600080fd5b600073ffffffffffffffffffffffffffffffffffffffff82169050919050565b6000620003b68262000389565b9050919050565b620003c881620003a9565b8114620003d457600080fd5b50565b600081519050620003e881620003bd565b92915050565b600080fd5b600080fd5b6000601f19601f8301169050919050565b7f4e487b7100000000000000000000000000000000000000000000000000000000600052604160045260246000fd5b6200044382620003f8565b810181811067ffffffffffffffff8211171562000465576200046462000409565b5b80604052505050565b60006200047a62000375565b905062000488828262000438565b919050565b600067ffffffffffffffff821115620004ab57620004aa62000409565b5b620004b682620003f8565b9050602081019050919050565b60005b83811015620004e3578082015181840152602081019050620004c6565b83811115620004f3576000848401525b50505050565b6000620005106200050a846200048d565b6200046e565b9050828152602081018484840111156200052f576200052e620003f3565b5b6200053c848285620004c3565b509392505050565b600082601f8301126200055c576200055b620003ee565b5b81516200056e848260208601620004f9565b91505092915050565b6000806000606084860312156200059357620005926200037f565b5b6000620005a386828701620003d7565b935050602084015167ffffffffffffffff811115620005c757620005c662000384565b5b620005d58682870162000544565b925050604084015167ffffffffffffffff811115620005f957620005f862000384565b5b620006078682870162000544565b9150509250925092565b600081519050919050565b7f4e487b7100000000000000000000000000000000000000000000000000000000600052602260045260246000fd5b600060028204905060018216806200066457607f821691505b6020821081036200067a57620006796200061c565b5b50919050565b60008190508160005260206000209050919050565b60006020601f8301049050919050565b600082821b905092915050565b600060088302620006e47fffffffffffffffffffffffffffffffffffffffffffffffffffffffffffffffff82620006a5565b620006f08683620006a5565b95508019841693508086168417925050509392505050565b6000819050919050565b6000819050919050565b60006200073d62000737620007318462000708565b62000712565b62000708565b9050919050565b6000819050919050565b62000759836200071c565b62000771620007688262000744565b848454620006b2565b825550505050565b600090565b6200078862000779565b620007958184846200074e565b505050565b5b81811015620007bd57620007b16000826200077e565b6001810190506200079b565b5050565b601f8211156200080c57620007d68162000680565b620007e18462000695565b81016020851015620007f1578190505b62000809620008008562000695565b8301826200079a565b50505b505050565b600082821c905092915050565b6000620008316000198460080262000811565b1980831691505092915050565b60006200084c83836200081e565b9150826002028217905092915050565b620008678262000611565b67ffffffffffffffff81111562000883576200088262000409565b5b6200088f82546200064b565b6200089c828285620007c1565b600060209050601f831160018114620008d45760008415620008bf578287015190505b620008cb85826200083e565b8655506200093b565b601f198416620008e48662000680565b60005b828110156200090e57848901518255600182019150602085019450602081019050620008e7565b868310156200092e57848901516200092a601f8916826200081e565b8355505b6001600288020188555050505b505050505050565b600081905092915050565b60006200095b8262000611565b62000967818562000943565b935062000979818560208601620004c3565b80840191505092915050565b60006200099382846200094e565b915081905092915050565b6000620009ac82856200094e565b9150620009ba82846200094e565b91508190509392505050565b7f4e487b7100000000000000000000000000000000000000000000000000000000600052601160045260246000fd5b600062000a028262000708565b915062000a0f8362000708565b9250827fffffffffffffffffffffffffffffffffffffffffffffffffffffffffffffffff0382111562000a475762000a46620009c6565b5b828201905092915050565b7f4e487b7100000000000000000000000000000000000000000000000000000000600052601260045260246000fd5b600062000a8e8262000708565b915062000a9b8362000708565b92508262000aae5762000aad62000a52565b5b828204905092915050565b600062000ac68262000708565b915062000ad38362000708565b9250817fffffffffffffffffffffffffffffffffffffffffffffffffffffffffffffffff048311821515161562000b0f5762000b0e620009c6565b5b828202905092915050565b608051612d8c62000b366000396000610a840152612d8c6000f3fe608060405234801561001057600080fd5b50600436106101005760003560e01c80636352211e11610097578063b88d4fde11610066578063b88d4fde146102bd578063c87b56dd146102d9578063e425aded14610309578063e985e9c51461033957610100565b80636352211e1461022357806370a082311461025357806395d89b4114610283578063a22cb465146102a157610100565b80631e930812116100d35780631e9308121461019f57806323b872dd146101bb57806330d871c6146101d757806342842e0e1461020757610100565b806301ffc9a71461010557806306fdde0314610135578063081812fc14610153578063095ea7b314610183575b600080fd5b61011f600480360381019061011a9190611a28565b610369565b60405161012c9190611a70565b60405180910390f35b61013d61044b565b60405161014a9190611b24565b60405180910390f35b61016d60048036038101906101689190611b7c565b6104dd565b60405161017a9190611bea565b60405180910390f35b61019d60048036038101906101989190611c31565b610523565b005b6101b960048036038101906101b49190611ca7565b61063a565b005b6101d560048036038101906101d09190611cd4565b6106b7565b005b6101f160048036038101906101ec9190611e5c565b610717565b6040516101fe9190611b24565b60405180910390f35b610221600480360381019061021c9190611cd4565b6107a4565b005b61023d60048036038101906102389190611b7c565b6107c4565b60405161024a9190611bea565b60405180910390f35b61026d60048036038101906102689190611ea5565b610875565b60405161027a9190611ee1565b60405180910390f35b61028b61092c565b6040516102989190611b24565b60405180910390f35b6102bb60048036038101906102b69190611f28565b6109be565b005b6102d760048036038101906102d29190612009565b6109d4565b005b6102f360048036038101906102ee9190611b7c565b610a36565b6040516103009190611b24565b60405180910390f35b610323600480360381019061031e9190611b7c565b610cb0565b604051610330919061209b565b60405180910390f35b610353600480360381019061034e91906120b6565b610cc8565b6040516103609190611a70565b60405180910390f35b60007f80ac58cd000000000000000000000000000000000000000000000000000000007bffffffffffffffffffffffffffffffffffffffffffffffffffffffff1916827bffffffffffffffffffffffffffffffffffffffffffffffffffffffff1916148061043457507f5b5e139f000000000000000000000000000000000000000000000000000000007bffffffffffffffffffffffffffffffffffffffffffffffffffffffff1916827bffffffffffffffffffffffffffffffffffffffffffffffffffffffff1916145b80610444575061044382610ed4565b5b9050919050565b60606000805461045a90612125565b80601f016020809104026020016040519081016040528092919081815260200182805461048690612125565b80156104d35780601f106104a8576101008083540402835291602001916104d3565b820191906000526020600020905b8154815290600101906020018083116104b657829003601f168201915b5050505050905090565b60006104e882610f3e565b6004600083815260200190815260200160002060009054906101000a900473ffffffffffffffffffffffffffffffffffffffff169050919050565b600061052e826107c4565b90508073ffffffffffffffffffffffffffffffffffffffff168373ffffffffffffffffffffffffffffffffffffffff160361059e576040517f08c379a0000000000000000000000000000000000000000000000000000000008152600401610595906121c8565b60405180910390fd5b8073ffffffffffffffffffffffffffffffffffffffff166105bd610f89565b73ffffffffffffffffffffffffffffffffffffffff1614806105ec57506105eb816105e6610f89565b610cc8565b5b61062b576040517f08c379a00000000000000000000000000000000000000000000000000000000081526004016106229061225a565b60405180910390fd5b6106358383610f91565b505050565b60016006600082825461064d91906122a9565b92505081905550806009600060065481526020019081526020016000208190555061067a3360065461104a565b6006547f882d3b5a729a8bb95cf6c0083c99b42ecd9637123d4425bd7b768877fd8af8b0826040516106ac919061209b565b60405180910390a250565b6106c86106c2610f89565b82611068565b610707576040517f08c379a00000000000000000000000000000000000000000000000000000000081526004016106fe90612371565b60405180910390fd5b6107128383836110fd565b505050565b606060006107438360405160200161072f91906123cd565b604051602081830303815290604052610d5c565b90506040518060400160405280601a81526020017f646174613a696d6167652f7376672b786d6c3b6261736536342c0000000000008152508160405160200161078d9291906123e4565b604051602081830303815290604052915050919050565b6107bf838383604051806020016040528060008152506109d4565b505050565b6000806002600084815260200190815260200160002060009054906101000a900473ffffffffffffffffffffffffffffffffffffffff169050600073ffffffffffffffffffffffffffffffffffffffff168173ffffffffffffffffffffffffffffffffffffffff160361086c576040517f08c379a000000000000000000000000000000000000000000000000000000000815260040161086390612454565b60405180910390fd5b80915050919050565b60008073ffffffffffffffffffffffffffffffffffffffff168273ffffffffffffffffffffffffffffffffffffffff16036108e5576040517f08c379a00000000000000000000000000000000000000000000000000000000081526004016108dc906124e6565b60405180910390fd5b600360008373ffffffffffffffffffffffffffffffffffffffff1673ffffffffffffffffffffffffffffffffffffffff168152602001908152602001600020549050919050565b60606001805461093b90612125565b80601f016020809104026020016040519081016040528092919081815260200182805461096790612125565b80156109b45780601f10610989576101008083540402835291602001916109b4565b820191906000526020600020905b81548152906001019060200180831161099757829003601f168201915b5050505050905090565b6109d06109c9610f89565b8383611363565b5050565b6109e56109df610f89565b83611068565b610a24576040517f08c379a0000000000000000000000000000000000000000000000000000000008152600401610a1b90612371565b60405180910390fd5b610a30848484846114cf565b50505050565b6060610a418261152b565b610a80576040517f08c379a0000000000000000000000000000000000000000000000000000000008152600401610a7790612552565b60405180910390fd5b60007f000000000000000000000000000000000000000000000000000000000000000073ffffffffffffffffffffffffffffffffffffffff1663feaf968c6040518163ffffffff1660e01b815260040160a060405180830381865afa158015610aed573d6000803e3d6000fd5b505050506040513d601f19601f82011682018060405250810190610b1191906125de565b505050915050600060078054610b2690612125565b80601f0160208091040260200160405190810160405280929190818152602001828054610b5290612125565b8015610b9f5780601f10610b7457610100808354040283529160200191610b9f565b820191906000526020600020905b815481529060010190602001808311610b8257829003601f168201915b5050505050905060096000858152602001908152602001600020548212610c4e5760088054610bcd90612125565b80601f0160208091040260200160405190810160405280929190818152602001828054610bf990612125565b8015610c465780601f10610c1b57610100808354040283529160200191610c46565b820191906000526020600020905b815481529060010190602001808311610c2957829003601f168201915b505050505090505b610c56611597565b610c87610c6161044b565b83604051602001610c739291906127fb565b604051602081830303815290604052610d5c565b604051602001610c989291906123e4565b60405160208183030381529060405292505050919050565b60096020528060005260406000206000915090505481565b6000600560008473ffffffffffffffffffffffffffffffffffffffff1673ffffffffffffffffffffffffffffffffffffffff16815260200190815260200160002060008373ffffffffffffffffffffffffffffffffffffffff1673ffffffffffffffffffffffffffffffffffffffff16815260200190815260200160002060009054906101000a900460ff16905092915050565b60606000825103610d7e57604051806020016040528060008152509050610ecf565b6000604051806060016040528060408152602001612d176040913990506000600360028551610dad91906122a9565b610db7919061287a565b6004610dc391906128ab565b90506000602082610dd491906122a9565b67ffffffffffffffff811115610ded57610dec611d31565b5b6040519080825280601f01601f191660200182016040528015610e1f5781602001600182028036833780820191505090505b509050818152600183018586518101602084015b81831015610e8e576003830192508251603f8160121c168501518253600182019150603f81600c1c168501518253600182019150603f8160061c168501518253600182019150603f8116850151825360018201915050610e33565b600389510660018114610ea85760028114610eb857610ec3565b613d3d60f01b6002830352610ec3565b603d60f81b60018303525b50505050508093505050505b919050565b60007f01ffc9a7000000000000000000000000000000000000000000000000000000007bffffffffffffffffffffffffffffffffffffffffffffffffffffffff1916827bffffffffffffffffffffffffffffffffffffffffffffffffffffffff1916149050919050565b610f478161152b565b610f86576040517f08c379a0000000000000000000000000000000000000000000000000000000008152600401610f7d90612454565b60405180910390fd5b50565b600033905090565b816004600083815260200190815260200160002060006101000a81548173ffffffffffffffffffffffffffffffffffffffff021916908373ffffffffffffffffffffffffffffffffffffffff160217905550808273ffffffffffffffffffffffffffffffffffffffff16611004836107c4565b73ffffffffffffffffffffffffffffffffffffffff167f8c5be1e5ebec7d5bd14f71427d1e84f3dd0314c0f7b2291e5b200ac8c7c3b92560405160405180910390a45050565b6110648282604051806020016040528060008152506115d4565b5050565b600080611074836107c4565b90508073ffffffffffffffffffffffffffffffffffffffff168473ffffffffffffffffffffffffffffffffffffffff1614806110b657506110b58185610cc8565b5b806110f457508373ffffffffffffffffffffffffffffffffffffffff166110dc846104dd565b73ffffffffffffffffffffffffffffffffffffffff16145b91505092915050565b8273ffffffffffffffffffffffffffffffffffffffff1661111d826107c4565b73ffffffffffffffffffffffffffffffffffffffff1614611173576040517f08c379a000000000000000000000000000000000000000000000000000000000815260040161116a90612977565b60405180910390fd5b600073ffffffffffffffffffffffffffffffffffffffff168273ffffffffffffffffffffffffffffffffffffffff16036111e2576040517f08c379a00000000000000000000000000000000000000000000000000000000081526004016111d990612a09565b60405180910390fd5b6111ed83838361162f565b6111f8600082610f91565b6001600360008573ffffffffffffffffffffffffffffffffffffffff1673ffffffffffffffffffffffffffffffffffffffff16815260200190815260200160002060008282546112489190612a29565b925050819055506001600360008473ffffffffffffffffffffffffffffffffffffffff1673ffffffffffffffffffffffffffffffffffffffff168152602001908152602001600020600082825461129f91906122a9565b92505081905550816002600083815260200190815260200160002060006101000a81548173ffffffffffffffffffffffffffffffffffffffff021916908373ffffffffffffffffffffffffffffffffffffffff160217905550808273ffffffffffffffffffffffffffffffffffffffff168473ffffffffffffffffffffffffffffffffffffffff167fddf252ad1be2c89b69c2b068fc378daa952ba7f163c4a11628f55a4df523b3ef60405160405180910390a461135e838383611634565b505050565b8173ffffffffffffffffffffffffffffffffffffffff168373ffffffffffffffffffffffffffffffffffffffff16036113d1576040517f08c379a00000000000000000000000000000000000000000000000000000000081526004016113c890612aa9565b60405180910390fd5b80600560008573ffffffffffffffffffffffffffffffffffffffff1673ffffffffffffffffffffffffffffffffffffffff16815260200190815260200160002060008473ffffffffffffffffffffffffffffffffffffffff1673ffffffffffffffffffffffffffffffffffffffff16815260200190815260200160002060006101000a81548160ff0219169083151502179055508173ffffffffffffffffffffffffffffffffffffffff168373ffffffffffffffffffffffffffffffffffffffff167f17307eab39ab6107e8899845ad3d59bd9653f200f220920489ca2b5937696c31836040516114c29190611a70565b60405180910390a3505050565b6114da8484846110fd565b6114e684848484611639565b611525576040517f08c379a000000000000000000000000000000000000000000000000000000000815260040161151c90612b3b565b60405180910390fd5b50505050565b60008073ffffffffffffffffffffffffffffffffffffffff166002600084815260200190815260200160002060009054906101000a900473ffffffffffffffffffffffffffffffffffffffff1673ffffffffffffffffffffffffffffffffffffffff1614159050919050565b60606040518060400160405280601d81526020017f646174613a6170706c69636174696f6e2f6a736f6e3b6261736536342c000000815250905090565b6115de83836117c0565b6115eb6000848484611639565b61162a576040517f08c379a000000000000000000000000000000000000000000000000000000000815260040161162190612b3b565b60405180910390fd5b505050565b505050565b505050565b600061165a8473ffffffffffffffffffffffffffffffffffffffff16611999565b156117b3578373ffffffffffffffffffffffffffffffffffffffff1663150b7a02611683610f89565b8786866040518563ffffffff1660e01b81526004016116a59493929190612bb0565b6020604051808303816000875af19250505080156116e157506040513d601f19601f820116820180604052508101906116de9190612c11565b60015b611763573d8060008114611711576040519150601f19603f3d011682016040523d82523d6000602084013e611716565b606091505b50600081510361175b576040517f08c379a000000000000000000000000000000000000000000000000000000000815260040161175290612b3b565b60405180910390fd5b805181602001fd5b63150b7a0260e01b7bffffffffffffffffffffffffffffffffffffffffffffffffffffffff1916817bffffffffffffffffffffffffffffffffffffffffffffffffffffffff1916149150506117b8565b600190505b949350505050565b600073ffffffffffffffffffffffffffffffffffffffff168273ffffffffffffffffffffffffffffffffffffffff160361182f576040517f08c379a000000000000000000000000000000000000000000000000000000000815260040161182690612c8a565b60405180910390fd5b6118388161152b565b15611878576040517f08c379a000000000000000000000000000000000000000000000000000000000815260040161186f90612cf6565b60405180910390fd5b6118846000838361162f565b6001600360008473ffffffffffffffffffffffffffffffffffffffff1673ffffffffffffffffffffffffffffffffffffffff16815260200190815260200160002060008282546118d491906122a9565b92505081905550816002600083815260200190815260200160002060006101000a81548173ffffffffffffffffffffffffffffffffffffffff021916908373ffffffffffffffffffffffffffffffffffffffff160217905550808273ffffffffffffffffffffffffffffffffffffffff16600073ffffffffffffffffffffffffffffffffffffffff167fddf252ad1be2c89b69c2b068fc378daa952ba7f163c4a11628f55a4df523b3ef60405160405180910390a461199560008383611634565b5050565b6000808273ffffffffffffffffffffffffffffffffffffffff163b119050919050565b6000604051905090565b600080fd5b600080fd5b60007fffffffff0000000000000000000000000000000000000000000000000000000082169050919050565b611a05816119d0565b8114611a1057600080fd5b50565b600081359050611a22816119fc565b92915050565b600060208284031215611a3e57611a3d6119c6565b5b6000611a4c84828501611a13565b91505092915050565b60008115159050919050565b611a6a81611a55565b82525050565b6000602082019050611a856000830184611a61565b92915050565b600081519050919050565b600082825260208201905092915050565b60005b83811015611ac5578082015181840152602081019050611aaa565b83811115611ad4576000848401525b50505050565b6000601f19601f8301169050919050565b6000611af682611a8b565b611b008185611a96565b9350611b10818560208601611aa7565b611b1981611ada565b840191505092915050565b60006020820190508181036000830152611b3e8184611aeb565b905092915050565b6000819050919050565b611b5981611b46565b8114611b6457600080fd5b50565b600081359050611b7681611b50565b92915050565b600060208284031215611b9257611b916119c6565b5b6000611ba084828501611b67565b91505092915050565b600073ffffffffffffffffffffffffffffffffffffffff82169050919050565b6000611bd482611ba9565b9050919050565b611be481611bc9565b82525050565b6000602082019050611bff6000830184611bdb565b92915050565b611c0e81611bc9565b8114611c1957600080fd5b50565b600081359050611c2b81611c05565b92915050565b60008060408385031215611c4857611c476119c6565b5b6000611c5685828601611c1c565b9250506020611c6785828601611b67565b9150509250929050565b6000819050919050565b611c8481611c71565b8114611c8f57600080fd5b50565b600081359050611ca181611c7b565b92915050565b600060208284031215611cbd57611cbc6119c6565b5b6000611ccb84828501611c92565b91505092915050565b600080600060608486031215611ced57611cec6119c6565b5b6000611cfb86828701611c1c565b9350506020611d0c86828701611c1c565b9250506040611d1d86828701611b67565b9150509250925092565b600080fd5b600080fd5b7f4e487b7100000000000000000000000000000000000000000000000000000000600052604160045260246000fd5b611d6982611ada565b810181811067ffffffffffffffff82111715611d8857611d87611d31565b5b80604052505050565b6000611d9b6119bc565b9050611da78282611d60565b919050565b600067ffffffffffffffff821115611dc757611dc6611d31565b5b611dd082611ada565b9050602081019050919050565b82818337600083830152505050565b6000611dff611dfa84611dac565b611d91565b905082815260208101848484011115611e1b57611e1a611d2c565b5b611e26848285611ddd565b509392505050565b600082601f830112611e4357611e42611d27565b5b8135611e53848260208601611dec565b91505092915050565b600060208284031215611e7257611e716119c6565b5b600082013567ffffffffffffffff811115611e9057611e8f6119cb565b5b611e9c84828501611e2e565b91505092915050565b600060208284031215611ebb57611eba6119c6565b5b6000611ec984828501611c1c565b91505092915050565b611edb81611b46565b82525050565b6000602082019050611ef66000830184611ed2565b92915050565b611f0581611a55565b8114611f1057600080fd5b50565b600081359050611f2281611efc565b92915050565b60008060408385031215611f3f57611f3e6119c6565b5b6000611f4d85828601611c1c565b9250506020611f5e85828601611f13565b9150509250929050565b600067ffffffffffffffff821115611f8357611f82611d31565b5b611f8c82611ada565b9050602081019050919050565b6000611fac611fa784611f68565b611d91565b905082815260208101848484011115611fc857611fc7611d2c565b5b611fd3848285611ddd565b509392505050565b600082601f830112611ff057611fef611d27565b5b8135612000848260208601611f99565b91505092915050565b60008060008060808587031215612023576120226119c6565b5b600061203187828801611c1c565b945050602061204287828801611c1c565b935050604061205387828801611b67565b925050606085013567ffffffffffffffff811115612074576120736119cb565b5b61208087828801611fdb565b91505092959194509250565b61209581611c71565b82525050565b60006020820190506120b0600083018461208c565b92915050565b600080604083850312156120cd576120cc6119c6565b5b60006120db85828601611c1c565b92505060206120ec85828601611c1c565b9150509250929050565b7f4e487b7100000000000000000000000000000000000000000000000000000000600052602260045260246000fd5b6000600282049050600182168061213d57607f821691505b6020821081036121505761214f6120f6565b5b50919050565b7f4552433732313a20617070726f76616c20746f2063757272656e74206f776e6560008201527f7200000000000000000000000000000000000000000000000000000000000000602082015250565b60006121b2602183611a96565b91506121bd82612156565b604082019050919050565b600060208201905081810360008301526121e1816121a5565b9050919050565b7f4552433732313a20617070726f76652063616c6c6572206973206e6f7420746f60008201527f6b656e206f776e6572206e6f7220617070726f76656420666f7220616c6c0000602082015250565b6000612244603e83611a96565b915061224f826121e8565b604082019050919050565b6000602082019050818103600083015261227381612237565b9050919050565b7f4e487b7100000000000000000000000000000000000000000000000000000000600052601160045260246000fd5b60006122b482611b46565b91506122bf83611b46565b9250827fffffffffffffffffffffffffffffffffffffffffffffffffffffffffffffffff038211156122f4576122f361227a565b5b828201905092915050565b7f4552433732313a2063616c6c6572206973206e6f7420746f6b656e206f776e6560008201527f72206e6f7220617070726f766564000000000000000000000000000000000000602082015250565b600061235b602e83611a96565b9150612366826122ff565b604082019050919050565b6000602082019050818103600083015261238a8161234e565b9050919050565b600081905092915050565b60006123a782611a8b565b6123b18185612391565b93506123c1818560208601611aa7565b80840191505092915050565b60006123d9828461239c565b915081905092915050565b60006123f0828561239c565b91506123fc828461239c565b91508190509392505050565b7f4552433732313a20696e76616c696420746f6b656e2049440000000000000000600082015250565b600061243e601883611a96565b915061244982612408565b602082019050919050565b6000602082019050818103600083015261246d81612431565b9050919050565b7f4552433732313a2061646472657373207a65726f206973206e6f74206120766160008201527f6c6964206f776e65720000000000000000000000000000000000000000000000602082015250565b60006124d0602983611a96565b91506124db82612474565b604082019050919050565b600060208201905081810360008301526124ff816124c3565b9050919050565b7f546f6b656e20646f65736e742065786973740000000000000000000000000000600082015250565b600061253c601283611a96565b915061254782612506565b602082019050919050565b6000602082019050818103600083015261256b8161252f565b9050919050565b600069ffffffffffffffffffff82169050919050565b61259181612572565b811461259c57600080fd5b50565b6000815190506125ae81612588565b92915050565b6000815190506125c381611c7b565b92915050565b6000815190506125d881611b50565b92915050565b600080600080600060a086880312156125fa576125f96119c6565b5b60006126088882890161259f565b9550506020612619888289016125b4565b945050604061262a888289016125c9565b935050606061263b888289016125c9565b925050608061264c8882890161259f565b9150509295509295909350565b7f7b226e616d65223a220000000000000000000000000000000000000000000000600082015250565b600061268f600983612391565b915061269a82612659565b600982019050919050565b7f222c20226465736372697074696f6e223a20224e46542074686174206368616e60008201527f676573206261736564206f6e20436861696e6c696e6b2066656564222c200000602082015250565b6000612701603e83612391565b915061270c826126a5565b603e82019050919050565b7f22617474726962757465733a205b7b2274726169745f74797065223a2022636f60008201527f6f6c6e657373222c202276616c7565223a203130307d5d2c2022696d6167652260208201527f3a00000000000000000000000000000000000000000000000000000000000000604082015250565b6000612799604183612391565b91506127a482612717565b604182019050919050565b7f227d000000000000000000000000000000000000000000000000000000000000600082015250565b60006127e5600283612391565b91506127f0826127af565b600282019050919050565b600061280682612682565b9150612812828561239c565b915061281d826126f4565b91506128288261278c565b9150612834828461239c565b915061283f826127d8565b91508190509392505050565b7f4e487b7100000000000000000000000000000000000000000000000000000000600052601260045260246000fd5b600061288582611b46565b915061289083611b46565b9250826128a05761289f61284b565b5b828204905092915050565b60006128b682611b46565b91506128c183611b46565b9250817fffffffffffffffffffffffffffffffffffffffffffffffffffffffffffffffff04831182151516156128fa576128f961227a565b5b828202905092915050565b7f4552433732313a207472616e736665722066726f6d20696e636f72726563742060008201527f6f776e6572000000000000000000000000000000000000000000000000000000602082015250565b6000612961602583611a96565b915061296c82612905565b604082019050919050565b6000602082019050818103600083015261299081612954565b9050919050565b7f4552433732313a207472616e7366657220746f20746865207a65726f2061646460008201527f7265737300000000000000000000000000000000000000000000000000000000602082015250565b60006129f3602483611a96565b91506129fe82612997565b604082019050919050565b60006020820190508181036000830152612a22816129e6565b9050919050565b6000612a3482611b46565b9150612a3f83611b46565b925082821015612a5257612a5161227a565b5b828203905092915050565b7f4552433732313a20617070726f766520746f2063616c6c657200000000000000600082015250565b6000612a93601983611a96565b9150612a9e82612a5d565b602082019050919050565b60006020820190508181036000830152612ac281612a86565b9050919050565b7f4552433732313a207472616e7366657220746f206e6f6e20455243373231526560008201527f63656976657220696d706c656d656e7465720000000000000000000000000000602082015250565b6000612b25603283611a96565b9150612b3082612ac9565b604082019050919050565b60006020820190508181036000830152612b5481612b18565b9050919050565b600081519050919050565b600082825260208201905092915050565b6000612b8282612b5b565b612b8c8185612b66565b9350612b9c818560208601611aa7565b612ba581611ada565b840191505092915050565b6000608082019050612bc56000830187611bdb565b612bd26020830186611bdb565b612bdf6040830185611ed2565b8181036060830152612bf18184612b77565b905095945050505050565b600081519050612c0b816119fc565b92915050565b600060208284031215612c2757612c266119c6565b5b6000612c3584828501612bfc565b91505092915050565b7f4552433732313a206d696e7420746f20746865207a65726f2061646472657373600082015250565b6000612c74602083611a96565b9150612c7f82612c3e565b602082019050919050565b60006020820190508181036000830152612ca381612c67565b9050919050565b7f4552433732313a20746f6b656e20616c7265616479206d696e74656400000000600082015250565b6000612ce0601c83611a96565b9150612ceb82612caa565b602082019050919050565b60006020820190508181036000830152612d0f81612cd3565b905091905056fe4142434445464748494a4b4c4d4e4f505152535455565758595a6162636465666768696a6b6c6d6e6f707172737475767778797a303132333435363738392b2fa2646970667358221220314f9ccd329d017afcbc542f82fd3c12e613d113ba9b247cdfc32515ed878b2f64736f6c634300080f00334142434445464748494a4b4c4d4e4f505152535455565758595a6162636465666768696a6b6c6d6e6f707172737475767778797a303132333435363738392b2f",
  "devdoc": {
    "kind": "dev",
    "methods": {
      "approve(address,uint256)": {
        "details": "See {IERC721-approve}."
      },
      "balanceOf(address)": {
        "details": "See {IERC721-balanceOf}."
      },
      "getApproved(uint256)": {
        "details": "See {IERC721-getApproved}."
      },
      "isApprovedForAll(address,address)": {
        "details": "See {IERC721-isApprovedForAll}."
      },
      "name()": {
        "details": "See {IERC721Metadata-name}."
      },
      "ownerOf(uint256)": {
        "details": "See {IERC721-ownerOf}."
      },
      "safeTransferFrom(address,address,uint256)": {
        "details": "See {IERC721-safeTransferFrom}."
      },
      "safeTransferFrom(address,address,uint256,bytes)": {
        "details": "See {IERC721-safeTransferFrom}."
      },
      "setApprovalForAll(address,bool)": {
        "details": "See {IERC721-setApprovalForAll}."
      },
      "supportsInterface(bytes4)": {
        "details": "See {IERC165-supportsInterface}."
      },
      "symbol()": {
        "details": "See {IERC721Metadata-symbol}."
      },
      "tokenURI(uint256)": {
        "details": "See {IERC721Metadata-tokenURI}."
      },
      "transferFrom(address,address,uint256)": {
        "details": "See {IERC721-transferFrom}."
      }
    },
    "version": 1
  },
  "userdoc": {
    "kind": "user",
    "methods": {},
    "version": 1
  },
  "storageLayout": {
    "storage": [
      {
        "astId": 71,
        "contract": "contracts/DynamicSvgNFT.sol:DynamicSvgNFT",
        "label": "_name",
        "offset": 0,
        "slot": "0",
        "type": "t_string_storage"
      },
      {
        "astId": 73,
        "contract": "contracts/DynamicSvgNFT.sol:DynamicSvgNFT",
        "label": "_symbol",
        "offset": 0,
        "slot": "1",
        "type": "t_string_storage"
      },
      {
        "astId": 77,
        "contract": "contracts/DynamicSvgNFT.sol:DynamicSvgNFT",
        "label": "_owners",
        "offset": 0,
        "slot": "2",
        "type": "t_mapping(t_uint256,t_address)"
      },
      {
        "astId": 81,
        "contract": "contracts/DynamicSvgNFT.sol:DynamicSvgNFT",
        "label": "_balances",
        "offset": 0,
        "slot": "3",
        "type": "t_mapping(t_address,t_uint256)"
      },
      {
        "astId": 85,
        "contract": "contracts/DynamicSvgNFT.sol:DynamicSvgNFT",
        "label": "_tokenApprovals",
        "offset": 0,
        "slot": "4",
        "type": "t_mapping(t_uint256,t_address)"
      },
      {
        "astId": 91,
        "contract": "contracts/DynamicSvgNFT.sol:DynamicSvgNFT",
        "label": "_operatorApprovals",
        "offset": 0,
        "slot": "5",
        "type": "t_mapping(t_address,t_mapping(t_address,t_bool))"
      },
      {
        "astId": 1776,
        "contract": "contracts/DynamicSvgNFT.sol:DynamicSvgNFT",
        "label": "s_tokenCounter",
        "offset": 0,
        "slot": "6",
        "type": "t_uint256"
      },
      {
        "astId": 1778,
        "contract": "contracts/DynamicSvgNFT.sol:DynamicSvgNFT",
        "label": "i_lowImageUri",
        "offset": 0,
        "slot": "7",
        "type": "t_string_storage"
      },
      {
        "astId": 1780,
        "contract": "contracts/DynamicSvgNFT.sol:DynamicSvgNFT",
        "label": "i_highImageUri",
        "offset": 0,
        "slot": "8",
        "type": "t_string_storage"
      },
      {
        "astId": 1790,
        "contract": "contracts/DynamicSvgNFT.sol:DynamicSvgNFT",
        "label": "s_tokenIdToHighValue",
        "offset": 0,
        "slot": "9",
        "type": "t_mapping(t_uint256,t_int256)"
      }
    ],
    "types": {
      "t_address": {
        "encoding": "inplace",
        "label": "address",
        "numberOfBytes": "20"
      },
      "t_bool": {
        "encoding": "inplace",
        "label": "bool",
        "numberOfBytes": "1"
      },
      "t_int256": {
        "encoding": "inplace",
        "label": "int256",
        "numberOfBytes": "32"
      },
      "t_mapping(t_address,t_bool)": {
        "encoding": "mapping",
        "key": "t_address",
        "label": "mapping(address => bool)",
        "numberOfBytes": "32",
        "value": "t_bool"
      },
      "t_mapping(t_address,t_mapping(t_address,t_bool))": {
        "encoding": "mapping",
        "key": "t_address",
        "label": "mapping(address => mapping(address => bool))",
        "numberOfBytes": "32",
        "value": "t_mapping(t_address,t_bool)"
      },
      "t_mapping(t_address,t_uint256)": {
        "encoding": "mapping",
        "key": "t_address",
        "label": "mapping(address => uint256)",
        "numberOfBytes": "32",
        "value": "t_uint256"
      },
      "t_mapping(t_uint256,t_address)": {
        "encoding": "mapping",
        "key": "t_uint256",
        "label": "mapping(uint256 => address)",
        "numberOfBytes": "32",
        "value": "t_address"
      },
      "t_mapping(t_uint256,t_int256)": {
        "encoding": "mapping",
        "key": "t_uint256",
        "label": "mapping(uint256 => int256)",
        "numberOfBytes": "32",
        "value": "t_int256"
      },
      "t_string_storage": {
        "encoding": "bytes",
        "label": "string",
        "numberOfBytes": "32"
      },
      "t_uint256": {
        "encoding": "inplace",
        "label": "uint256",
        "numberOfBytes": "32"
      }
    }
  }
}