{
  "address": "0xAf2DA758290655871f40103ba225ed43A2272691",
  "abi": [
    {
      "inputs": [
        {
          "internalType": "address",
          "name": "vrfCoordinatorV2",
          "type": "address"
        },
        {
          "internalType": "uint64",
          "name": "subscriptionId",
          "type": "uint64"
        },
        {
          "internalType": "bytes32",
          "name": "gasLane",
          "type": "bytes32"
        },
        {
          "internalType": "uint32",
          "name": "callbackGasLimit",
          "type": "uint32"
        },
        {
          "internalType": "string[3]",
          "name": "characterUris",
          "type": "string[3]"
        },
        {
          "internalType": "uint256",
          "name": "mintFee",
          "type": "uint256"
        }
      ],
      "stateMutability": "nonpayable",
      "type": "constructor"
    },
    {
      "inputs": [
        {
          "internalType": "address",
          "name": "have",
          "type": "address"
        },
        {
          "internalType": "address",
          "name": "want",
          "type": "address"
        }
      ],
      "name": "OnlyCoordinatorCanFulfill",
      "type": "error"
    },
    {
      "inputs": [],
      "name": "RandomIpfsNft__NeedMoreEth",
      "type": "error"
    },
    {
      "inputs": [],
      "name": "RandomIpfsNft__RangeOutOfBounds",
      "type": "error"
    },
    {
      "inputs": [],
      "name": "RandomIpfsNft__WithdrawFail",
      "type": "error"
    },
    {
      "anonymous": false,
      "inputs": [
        {
          "indexed": true,
          "internalType": "address",
          "name": "owner",
          "type": "address"
        },
        {
          "indexed": true,
          "internalType": "address",
          "name": "approved",
          "type": "address"
        },
        {
          "indexed": true,
          "internalType": "uint256",
          "name": "tokenId",
          "type": "uint256"
        }
      ],
      "name": "Approval",
      "type": "event"
    },
    {
      "anonymous": false,
      "inputs": [
        {
          "indexed": true,
          "internalType": "address",
          "name": "owner",
          "type": "address"
        },
        {
          "indexed": true,
          "internalType": "address",
          "name": "operator",
          "type": "address"
        },
        {
          "indexed": false,
          "internalType": "bool",
          "name": "approved",
          "type": "bool"
        }
      ],
      "name": "ApprovalForAll",
      "type": "event"
    },
    {
      "anonymous": false,
      "inputs": [
        {
          "indexed": false,
          "internalType": "enum RandomIpfsNFT.Character",
          "name": "char",
          "type": "uint8"
        },
        {
          "indexed": false,
          "internalType": "address",
          "name": "requested",
          "type": "address"
        }
      ],
      "name": "NftMinted",
      "type": "event"
    },
    {
      "anonymous": false,
      "inputs": [
        {
          "indexed": true,
          "internalType": "uint256",
          "name": "requestId",
          "type": "uint256"
        },
        {
          "indexed": false,
          "internalType": "address",
          "name": "requested",
          "type": "address"
        }
      ],
      "name": "NftRequested",
      "type": "event"
    },
    {
      "anonymous": false,
      "inputs": [
        {
          "indexed": true,
          "internalType": "address",
          "name": "previousOwner",
          "type": "address"
        },
        {
          "indexed": true,
          "internalType": "address",
          "name": "newOwner",
          "type": "address"
        }
      ],
      "name": "OwnershipTransferred",
      "type": "event"
    },
    {
      "anonymous": false,
      "inputs": [
        {
          "indexed": true,
          "internalType": "address",
          "name": "from",
          "type": "address"
        },
        {
          "indexed": true,
          "internalType": "address",
          "name": "to",
          "type": "address"
        },
        {
          "indexed": true,
          "internalType": "uint256",
          "name": "tokenId",
          "type": "uint256"
        }
      ],
      "name": "Transfer",
      "type": "event"
    },
    {
      "inputs": [
        {
          "internalType": "address",
          "name": "to",
          "type": "address"
        },
        {
          "internalType": "uint256",
          "name": "tokenId",
          "type": "uint256"
        }
      ],
      "name": "approve",
      "outputs": [],
      "stateMutability": "nonpayable",
      "type": "function"
    },
    {
      "inputs": [
        {
          "internalType": "address",
          "name": "owner",
          "type": "address"
        }
      ],
      "name": "balanceOf",
      "outputs": [
        {
          "internalType": "uint256",
          "name": "",
          "type": "uint256"
        }
      ],
      "stateMutability": "view",
      "type": "function"
    },
    {
      "inputs": [
        {
          "internalType": "uint256",
          "name": "tokenId",
          "type": "uint256"
        }
      ],
      "name": "getApproved",
      "outputs": [
        {
          "internalType": "address",
          "name": "",
          "type": "address"
        }
      ],
      "stateMutability": "view",
      "type": "function"
    },
    {
      "inputs": [],
      "name": "getChanceArray",
      "outputs": [
        {
          "internalType": "uint256[3]",
          "name": "",
          "type": "uint256[3]"
        }
      ],
      "stateMutability": "pure",
      "type": "function"
    },
    {
      "inputs": [
        {
          "internalType": "uint256",
          "name": "moddedRng",
          "type": "uint256"
        }
      ],
      "name": "getCharacterByModdedRng",
      "outputs": [
        {
          "internalType": "enum RandomIpfsNFT.Character",
          "name": "",
          "type": "uint8"
        }
      ],
      "stateMutability": "pure",
      "type": "function"
    },
    {
      "inputs": [
        {
          "internalType": "uint256",
          "name": "index",
          "type": "uint256"
        }
      ],
      "name": "getCharacterURI",
      "outputs": [
        {
          "internalType": "string",
          "name": "",
          "type": "string"
        }
      ],
      "stateMutability": "view",
      "type": "function"
    },
    {
      "inputs": [],
      "name": "getMintFee",
      "outputs": [
        {
          "internalType": "uint256",
          "name": "",
          "type": "uint256"
        }
      ],
      "stateMutability": "view",
      "type": "function"
    },
    {
      "inputs": [],
      "name": "getTokenCounter",
      "outputs": [
        {
          "internalType": "uint256",
          "name": "",
          "type": "uint256"
        }
      ],
      "stateMutability": "view",
      "type": "function"
    },
    {
      "inputs": [
        {
          "internalType": "address",
          "name": "owner",
          "type": "address"
        },
        {
          "internalType": "address",
          "name": "operator",
          "type": "address"
        }
      ],
      "name": "isApprovedForAll",
      "outputs": [
        {
          "internalType": "bool",
          "name": "",
          "type": "bool"
        }
      ],
      "stateMutability": "view",
      "type": "function"
    },
    {
      "inputs": [],
      "name": "name",
      "outputs": [
        {
          "internalType": "string",
          "name": "",
          "type": "string"
        }
      ],
      "stateMutability": "view",
      "type": "function"
    },
    {
      "inputs": [],
      "name": "owner",
      "outputs": [
        {
          "internalType": "address",
          "name": "",
          "type": "address"
        }
      ],
      "stateMutability": "view",
      "type": "function"
    },
    {
      "inputs": [
        {
          "internalType": "uint256",
          "name": "tokenId",
          "type": "uint256"
        }
      ],
      "name": "ownerOf",
      "outputs": [
        {
          "internalType": "address",
          "name": "",
          "type": "address"
        }
      ],
      "stateMutability": "view",
      "type": "function"
    },
    {
      "inputs": [
        {
          "internalType": "uint256",
          "name": "requestId",
          "type": "uint256"
        },
        {
          "internalType": "uint256[]",
          "name": "randomWords",
          "type": "uint256[]"
        }
      ],
      "name": "rawFulfillRandomWords",
      "outputs": [],
      "stateMutability": "nonpayable",
      "type": "function"
    },
    {
      "inputs": [],
      "name": "renounceOwnership",
      "outputs": [],
      "stateMutability": "nonpayable",
      "type": "function"
    },
    {
      "inputs": [],
      "name": "requestNft",
      "outputs": [
        {
          "internalType": "uint256",
          "name": "requestId",
          "type": "uint256"
        }
      ],
      "stateMutability": "payable",
      "type": "function"
    },
    {
      "inputs": [],
      "name": "s_tokenCounter",
      "outputs": [
        {
          "internalType": "uint256",
          "name": "",
          "type": "uint256"
        }
      ],
      "stateMutability": "view",
      "type": "function"
    },
    {
      "inputs": [
        {
          "internalType": "address",
          "name": "from",
          "type": "address"
        },
        {
          "internalType": "address",
          "name": "to",
          "type": "address"
        },
        {
          "internalType": "uint256",
          "name": "tokenId",
          "type": "uint256"
        }
      ],
      "name": "safeTransferFrom",
      "outputs": [],
      "stateMutability": "nonpayable",
      "type": "function"
    },
    {
      "inputs": [
        {
          "internalType": "address",
          "name": "from",
          "type": "address"
        },
        {
          "internalType": "address",
          "name": "to",
          "type": "address"
        },
        {
          "internalType": "uint256",
          "name": "tokenId",
          "type": "uint256"
        },
        {
          "internalType": "bytes",
          "name": "data",
          "type": "bytes"
        }
      ],
      "name": "safeTransferFrom",
      "outputs": [],
      "stateMutability": "nonpayable",
      "type": "function"
    },
    {
      "inputs": [
        {
          "internalType": "address",
          "name": "operator",
          "type": "address"
        },
        {
          "internalType": "bool",
          "name": "approved",
          "type": "bool"
        }
      ],
      "name": "setApprovalForAll",
      "outputs": [],
      "stateMutability": "nonpayable",
      "type": "function"
    },
    {
      "inputs": [
        {
          "internalType": "bytes4",
          "name": "interfaceId",
          "type": "bytes4"
        }
      ],
      "name": "supportsInterface",
      "outputs": [
        {
          "internalType": "bool",
          "name": "",
          "type": "bool"
        }
      ],
      "stateMutability": "view",
      "type": "function"
    },
    {
      "inputs": [],
      "name": "symbol",
      "outputs": [
        {
          "internalType": "string",
          "name": "",
          "type": "string"
        }
      ],
      "stateMutability": "view",
      "type": "function"
    },
    {
      "inputs": [
        {
          "internalType": "uint256",
          "name": "tokenId",
          "type": "uint256"
        }
      ],
      "name": "tokenURI",
      "outputs": [
        {
          "internalType": "string",
          "name": "",
          "type": "string"
        }
      ],
      "stateMutability": "view",
      "type": "function"
    },
    {
      "inputs": [
        {
          "internalType": "address",
          "name": "from",
          "type": "address"
        },
        {
          "internalType": "address",
          "name": "to",
          "type": "address"
        },
        {
          "internalType": "uint256",
          "name": "tokenId",
          "type": "uint256"
        }
      ],
      "name": "transferFrom",
      "outputs": [],
      "stateMutability": "nonpayable",
      "type": "function"
    },
    {
      "inputs": [
        {
          "internalType": "address",
          "name": "newOwner",
          "type": "address"
        }
      ],
      "name": "transferOwnership",
      "outputs": [],
      "stateMutability": "nonpayable",
      "type": "function"
    },
    {
      "inputs": [],
      "name": "withdraw",
      "outputs": [],
      "stateMutability": "nonpayable",
      "type": "function"
    }
  ],
  "transactionHash": "0xc93097c7e96c57de0a620aba87602521d972325ef8c091aad5357684f0612e7e",
  "args": [
    "0x6168499c0cFfCaCD319c818142124B7A15E857ab",
    "9501",
    "0xd89b2bf150e3b9e13446986e571fb9cab24b13cea0a43ea20a6049a85cc807cc",
    "500000",
    [
      "ipfs://QmeDqXibvyVX9CnrZCYR5gXeY47Scr9u1JomP217iTrAit",
      "ipfs://QmRcafxMy5erZ7Y3Uv1tPFnko37aJne8JFojHiAcF3rD97",
      "ipfs://QmWw2qVvZcLCPdVvSr8yeZpZ8dTRzjWgsuw87KQf7ftqpx"
    ],
    "10000000000000000"
  ],
  "numDeployments": 2,
  "solcInputHash": "2b44d1c0272cf97ac2f86735c2d9aaf2",
  "bytecode": "0x6101406040523480156200001257600080fd5b506040516200463a3803806200463a833981810160405281019062000038919062000759565b6040518060400160405280600f81526020017f52616e646f6d204c6f6f70204e465400000000000000000000000000000000008152506040518060400160405280600781526020017f524e444c4f4f5000000000000000000000000000000000000000000000000000815250878073ffffffffffffffffffffffffffffffffffffffff1660808173ffffffffffffffffffffffffffffffffffffffff1681525050508160009081620000eb919062000a55565b508060019081620000fd919062000a55565b5050506200012062000114620001b660201b60201c565b620001be60201b60201c565b8573ffffffffffffffffffffffffffffffffffffffff1660a08173ffffffffffffffffffffffffffffffffffffffff16815250508467ffffffffffffffff1660c08167ffffffffffffffff16815250508360e081815250508263ffffffff166101008163ffffffff168152505081600a906003620001a092919062000284565b5080610120818152505050505050505062000b3c565b600033905090565b6000600760009054906101000a900473ffffffffffffffffffffffffffffffffffffffff16905081600760006101000a81548173ffffffffffffffffffffffffffffffffffffffff021916908373ffffffffffffffffffffffffffffffffffffffff1602179055508173ffffffffffffffffffffffffffffffffffffffff168173ffffffffffffffffffffffffffffffffffffffff167f8be0079c531659141344cd1fd0a4f28419497f9722a3daafe3b4186f6b6457e060405160405180910390a35050565b828054828255906000526020600020908101928215620002d1579160200282015b82811115620002d0578251829081620002bf919062000a55565b5091602001919060010190620002a5565b5b509050620002e09190620002e4565b5090565b5b80821115620003085760008181620002fe91906200030c565b50600101620002e5565b5090565b5080546200031a906200084e565b6000825580601f106200032e57506200034f565b601f0160209004906000526020600020908101906200034e919062000352565b5b50565b5b808211156200036d57600081600090555060010162000353565b5090565b6000604051905090565b600080fd5b600080fd5b600073ffffffffffffffffffffffffffffffffffffffff82169050919050565b6000620003b28262000385565b9050919050565b620003c481620003a5565b8114620003d057600080fd5b50565b600081519050620003e481620003b9565b92915050565b600067ffffffffffffffff82169050919050565b6200040981620003ea565b81146200041557600080fd5b50565b6000815190506200042981620003fe565b92915050565b6000819050919050565b62000444816200042f565b81146200045057600080fd5b50565b600081519050620004648162000439565b92915050565b600063ffffffff82169050919050565b62000485816200046a565b81146200049157600080fd5b50565b600081519050620004a5816200047a565b92915050565b600080fd5b6000601f19601f8301169050919050565b7f4e487b7100000000000000000000000000000000000000000000000000000000600052604160045260246000fd5b620004fb82620004b0565b810181811067ffffffffffffffff821117156200051d576200051c620004c1565b5b80604052505050565b60006200053262000371565b9050620005408282620004f0565b919050565b600067ffffffffffffffff821115620005635762000562620004c1565b5b602082029050919050565b600080fd5b600080fd5b600067ffffffffffffffff821115620005965762000595620004c1565b5b620005a182620004b0565b9050602081019050919050565b60005b83811015620005ce578082015181840152602081019050620005b1565b83811115620005de576000848401525b50505050565b6000620005fb620005f58462000578565b62000526565b9050828152602081018484840111156200061a576200061962000573565b5b62000627848285620005ae565b509392505050565b600082601f830112620006475762000646620004ab565b5b815162000659848260208601620005e4565b91505092915050565b600062000679620006738462000545565b62000526565b905080602084028301858111156200069657620006956200056e565b5b835b81811015620006e457805167ffffffffffffffff811115620006bf57620006be620004ab565b5b808601620006ce89826200062f565b8552602085019450505060208101905062000698565b5050509392505050565b600082601f830112620007065762000705620004ab565b5b60036200071584828562000662565b91505092915050565b6000819050919050565b62000733816200071e565b81146200073f57600080fd5b50565b600081519050620007538162000728565b92915050565b60008060008060008060c087890312156200077957620007786200037b565b5b60006200078989828a01620003d3565b96505060206200079c89828a0162000418565b9550506040620007af89828a0162000453565b9450506060620007c289828a0162000494565b935050608087015167ffffffffffffffff811115620007e657620007e562000380565b5b620007f489828a01620006ee565b92505060a06200080789828a0162000742565b9150509295509295509295565b600081519050919050565b7f4e487b7100000000000000000000000000000000000000000000000000000000600052602260045260246000fd5b600060028204905060018216806200086757607f821691505b6020821081036200087d576200087c6200081f565b5b50919050565b60008190508160005260206000209050919050565b60006020601f8301049050919050565b600082821b905092915050565b600060088302620008e77fffffffffffffffffffffffffffffffffffffffffffffffffffffffffffffffff82620008a8565b620008f38683620008a8565b95508019841693508086168417925050509392505050565b6000819050919050565b600062000936620009306200092a846200071e565b6200090b565b6200071e565b9050919050565b6000819050919050565b620009528362000915565b6200096a62000961826200093d565b848454620008b5565b825550505050565b600090565b6200098162000972565b6200098e81848462000947565b505050565b5b81811015620009b657620009aa60008262000977565b60018101905062000994565b5050565b601f82111562000a0557620009cf8162000883565b620009da8462000898565b81016020851015620009ea578190505b62000a02620009f98562000898565b83018262000993565b50505b505050565b600082821c905092915050565b600062000a2a6000198460080262000a0a565b1980831691505092915050565b600062000a45838362000a17565b9150826002028217905092915050565b62000a608262000814565b67ffffffffffffffff81111562000a7c5762000a7b620004c1565b5b62000a8882546200084e565b62000a95828285620009ba565b600060209050601f83116001811462000acd576000841562000ab8578287015190505b62000ac4858262000a37565b86555062000b34565b601f19841662000add8662000883565b60005b8281101562000b075784890151825560018201915060208501945060208101905062000ae0565b8683101562000b27578489015162000b23601f89168262000a17565b8355505b6001600288020188555050505b505050505050565b60805160a05160c05160e0516101005161012051613aa062000b9a60003960008181610dfd0152610ef701526000610fd101526000610f8d01526000610fae01526000610f510152600081816108c401526109180152613aa06000f3fe6080604052600436106101665760003560e01c80636e02007d116100d157806395d89b411161008a578063b88d4fde11610064578063b88d4fde1461051f578063c87b56dd14610548578063e985e9c514610585578063f2fde38b146105c257610166565b806395d89b41146104ad578063a22cb465146104d8578063aa1524911461050157610166565b80636e02007d1461039b57806370a08231146103c6578063715018a614610403578063790bee951461041a5780637a5caab3146104575780638da5cb5b1461048257610166565b806323b872dd1161012357806323b872dd1461028d5780633ccfd60b146102b657806342842e0e146102cd5780635dacf5f4146102f657806362d14c47146103215780636352211e1461035e57610166565b806301ffc9a71461016b57806306fdde03146101a8578063081812fc146101d3578063095ea7b3146102105780630b21a83b146102395780631fe543e314610264575b600080fd5b34801561017757600080fd5b50610192600480360381019061018d91906123d2565b6105eb565b60405161019f919061241a565b60405180910390f35b3480156101b457600080fd5b506101bd6106cd565b6040516101ca91906124ce565b60405180910390f35b3480156101df57600080fd5b506101fa60048036038101906101f59190612526565b61075f565b6040516102079190612594565b60405180910390f35b34801561021c57600080fd5b50610237600480360381019061023291906125db565b6107a5565b005b34801561024557600080fd5b5061024e6108bc565b60405161025b919061262a565b60405180910390f35b34801561027057600080fd5b5061028b6004803603810190610286919061278d565b6108c2565b005b34801561029957600080fd5b506102b460048036038101906102af91906127e9565b610982565b005b3480156102c257600080fd5b506102cb6109e2565b005b3480156102d957600080fd5b506102f460048036038101906102ef91906127e9565b610a96565b005b34801561030257600080fd5b5061030b610ab6565b60405161031891906128e7565b60405180910390f35b34801561032d57600080fd5b5061034860048036038101906103439190612526565b610ae1565b60405161035591906124ce565b60405180910390f35b34801561036a57600080fd5b5061038560048036038101906103809190612526565b610b91565b6040516103929190612594565b60405180910390f35b3480156103a757600080fd5b506103b0610c42565b6040516103bd919061262a565b60405180910390f35b3480156103d257600080fd5b506103ed60048036038101906103e89190612902565b610c4c565b6040516103fa919061262a565b60405180910390f35b34801561040f57600080fd5b50610418610d03565b005b34801561042657600080fd5b50610441600480360381019061043c9190612526565b610d17565b60405161044e91906129a6565b60405180910390f35b34801561046357600080fd5b5061046c610df9565b604051610479919061262a565b60405180910390f35b34801561048e57600080fd5b50610497610e21565b6040516104a49190612594565b60405180910390f35b3480156104b957600080fd5b506104c2610e4b565b6040516104cf91906124ce565b60405180910390f35b3480156104e457600080fd5b506104ff60048036038101906104fa91906129ed565b610edd565b005b610509610ef3565b604051610516919061262a565b60405180910390f35b34801561052b57600080fd5b5061054660048036038101906105419190612ae2565b6110e4565b005b34801561055457600080fd5b5061056f600480360381019061056a9190612526565b611146565b60405161057c91906124ce565b60405180910390f35b34801561059157600080fd5b506105ac60048036038101906105a79190612b65565b611258565b6040516105b9919061241a565b60405180910390f35b3480156105ce57600080fd5b506105e960048036038101906105e49190612902565b6112ec565b005b60007f80ac58cd000000000000000000000000000000000000000000000000000000007bffffffffffffffffffffffffffffffffffffffffffffffffffffffff1916827bffffffffffffffffffffffffffffffffffffffffffffffffffffffff191614806106b657507f5b5e139f000000000000000000000000000000000000000000000000000000007bffffffffffffffffffffffffffffffffffffffffffffffffffffffff1916827bffffffffffffffffffffffffffffffffffffffffffffffffffffffff1916145b806106c657506106c58261136f565b5b9050919050565b6060600080546106dc90612bd4565b80601f016020809104026020016040519081016040528092919081815260200182805461070890612bd4565b80156107555780601f1061072a57610100808354040283529160200191610755565b820191906000526020600020905b81548152906001019060200180831161073857829003601f168201915b5050505050905090565b600061076a826113d9565b6004600083815260200190815260200160002060009054906101000a900473ffffffffffffffffffffffffffffffffffffffff169050919050565b60006107b082610b91565b90508073ffffffffffffffffffffffffffffffffffffffff168373ffffffffffffffffffffffffffffffffffffffff1603610820576040517f08c379a000000000000000000000000000000000000000000000000000000000815260040161081790612c77565b60405180910390fd5b8073ffffffffffffffffffffffffffffffffffffffff1661083f611424565b73ffffffffffffffffffffffffffffffffffffffff16148061086e575061086d81610868611424565b611258565b5b6108ad576040517f08c379a00000000000000000000000000000000000000000000000000000000081526004016108a490612d09565b60405180910390fd5b6108b7838361142c565b505050565b60095481565b7f000000000000000000000000000000000000000000000000000000000000000073ffffffffffffffffffffffffffffffffffffffff163373ffffffffffffffffffffffffffffffffffffffff161461097457337f00000000000000000000000000000000000000000000000000000000000000006040517f1cf993f400000000000000000000000000000000000000000000000000000000815260040161096b929190612d29565b60405180910390fd5b61097e82826114e5565b5050565b61099361098d611424565b8261167f565b6109d2576040517f08c379a00000000000000000000000000000000000000000000000000000000081526004016109c990612dc4565b60405180910390fd5b6109dd838383611714565b505050565b6109ea61197a565b600047905060003373ffffffffffffffffffffffffffffffffffffffff1682604051610a1590612e15565b60006040518083038185875af1925050503d8060008114610a52576040519150601f19603f3d011682016040523d82523d6000602084013e610a57565b606091505b5050905080610a92576040517f5139fd3500000000000000000000000000000000000000000000000000000000815260040160405180910390fd5b5050565b610ab1838383604051806020016040528060008152506110e4565b505050565b610abe612344565b6040518060600160405280600a8152602001601e81526020016064815250905090565b6060600a8281548110610af757610af6612e2a565b5b906000526020600020018054610b0c90612bd4565b80601f0160208091040260200160405190810160405280929190818152602001828054610b3890612bd4565b8015610b855780601f10610b5a57610100808354040283529160200191610b85565b820191906000526020600020905b815481529060010190602001808311610b6857829003601f168201915b50505050509050919050565b6000806002600084815260200190815260200160002060009054906101000a900473ffffffffffffffffffffffffffffffffffffffff169050600073ffffffffffffffffffffffffffffffffffffffff168173ffffffffffffffffffffffffffffffffffffffff1603610c39576040517f08c379a0000000000000000000000000000000000000000000000000000000008152600401610c3090612ea5565b60405180910390fd5b80915050919050565b6000600954905090565b60008073ffffffffffffffffffffffffffffffffffffffff168273ffffffffffffffffffffffffffffffffffffffff1603610cbc576040517f08c379a0000000000000000000000000000000000000000000000000000000008152600401610cb390612f37565b60405180910390fd5b600360008373ffffffffffffffffffffffffffffffffffffffff1673ffffffffffffffffffffffffffffffffffffffff168152602001908152602001600020549050919050565b610d0b61197a565b610d1560006119f8565b565b600080600090506000610d28610ab6565b905060005b6003811015610dc157828510158015610d675750818160038110610d5457610d53612e2a565b5b602002015183610d649190612f86565b85105b15610d8957806002811115610d7f57610d7e61292f565b5b9350505050610df4565b818160038110610d9c57610d9b612e2a565b5b602002015183610dac9190612f86565b92508080610db990612fdc565b915050610d2d565b506040517f12806c9d00000000000000000000000000000000000000000000000000000000815260040160405180910390fd5b919050565b60007f0000000000000000000000000000000000000000000000000000000000000000905090565b6000600760009054906101000a900473ffffffffffffffffffffffffffffffffffffffff16905090565b606060018054610e5a90612bd4565b80601f0160208091040260200160405190810160405280929190818152602001828054610e8690612bd4565b8015610ed35780601f10610ea857610100808354040283529160200191610ed3565b820191906000526020600020905b815481529060010190602001808311610eb657829003601f168201915b5050505050905090565b610eef610ee8611424565b8383611abe565b5050565b60007f0000000000000000000000000000000000000000000000000000000000000000341015610f4f576040517fbd9aefd500000000000000000000000000000000000000000000000000000000815260040160405180910390fd5b7f000000000000000000000000000000000000000000000000000000000000000073ffffffffffffffffffffffffffffffffffffffff16635d3b1d307f00000000000000000000000000000000000000000000000000000000000000007f000000000000000000000000000000000000000000000000000000000000000060037f000000000000000000000000000000000000000000000000000000000000000060016040518663ffffffff1660e01b815260040161101295949392919061309c565b6020604051808303816000875af1158015611031573d6000803e3d6000fd5b505050506040513d601f19601f820116820180604052508101906110559190613104565b9050336008600083815260200190815260200160002060006101000a81548173ffffffffffffffffffffffffffffffffffffffff021916908373ffffffffffffffffffffffffffffffffffffffff160217905550807ff873236e6cc0ecc5be1a9a35c95ee5b8d1ac4cc7bfef0cc5060391d6cc98e26b336040516110d99190612594565b60405180910390a290565b6110f56110ef611424565b8361167f565b611134576040517f08c379a000000000000000000000000000000000000000000000000000000000815260040161112b90612dc4565b60405180910390fd5b61114084848484611c2a565b50505050565b6060611151826113d9565b600060066000848152602001908152602001600020805461117190612bd4565b80601f016020809104026020016040519081016040528092919081815260200182805461119d90612bd4565b80156111ea5780601f106111bf576101008083540402835291602001916111ea565b820191906000526020600020905b8154815290600101906020018083116111cd57829003601f168201915b5050505050905060006111fb611c86565b90506000815103611210578192505050611253565b60008251111561124557808260405160200161122d92919061316d565b60405160208183030381529060405292505050611253565b61124e84611c9d565b925050505b919050565b6000600560008473ffffffffffffffffffffffffffffffffffffffff1673ffffffffffffffffffffffffffffffffffffffff16815260200190815260200160002060008373ffffffffffffffffffffffffffffffffffffffff1673ffffffffffffffffffffffffffffffffffffffff16815260200190815260200160002060009054906101000a900460ff16905092915050565b6112f461197a565b600073ffffffffffffffffffffffffffffffffffffffff168173ffffffffffffffffffffffffffffffffffffffff1603611363576040517f08c379a000000000000000000000000000000000000000000000000000000000815260040161135a90613203565b60405180910390fd5b61136c816119f8565b50565b60007f01ffc9a7000000000000000000000000000000000000000000000000000000007bffffffffffffffffffffffffffffffffffffffffffffffffffffffff1916827bffffffffffffffffffffffffffffffffffffffffffffffffffffffff1916149050919050565b6113e281611d05565b611421576040517f08c379a000000000000000000000000000000000000000000000000000000000815260040161141890612ea5565b60405180910390fd5b50565b600033905090565b816004600083815260200190815260200160002060006101000a81548173ffffffffffffffffffffffffffffffffffffffff021916908373ffffffffffffffffffffffffffffffffffffffff160217905550808273ffffffffffffffffffffffffffffffffffffffff1661149f83610b91565b73ffffffffffffffffffffffffffffffffffffffff167f8c5be1e5ebec7d5bd14f71427d1e84f3dd0314c0f7b2291e5b200ac8c7c3b92560405160405180910390a45050565b60006008600084815260200190815260200160002060009054906101000a900473ffffffffffffffffffffffffffffffffffffffff16905060006009549050600060648460008151811061153c5761153b612e2a565b5b602002602001015161154e9190613252565b9050600061155b82610d17565b9050600160095461156c9190612f86565b60098190555061157c8484611d71565b61163e83600a8360028111156115955761159461292f565b5b815481106115a6576115a5612e2a565b5b9060005260206000200180546115bb90612bd4565b80601f01602080910402602001604051908101604052809291908181526020018280546115e790612bd4565b80156116345780601f1061160957610100808354040283529160200191611634565b820191906000526020600020905b81548152906001019060200180831161161757829003601f168201915b5050505050611d8f565b7f8a269f26b688e110e9cbd887d163dab35cae678fa353a0292de532c0cac1ecdc818560405161166f929190613283565b60405180910390a1505050505050565b60008061168b83610b91565b90508073ffffffffffffffffffffffffffffffffffffffff168473ffffffffffffffffffffffffffffffffffffffff1614806116cd57506116cc8185611258565b5b8061170b57508373ffffffffffffffffffffffffffffffffffffffff166116f38461075f565b73ffffffffffffffffffffffffffffffffffffffff16145b91505092915050565b8273ffffffffffffffffffffffffffffffffffffffff1661173482610b91565b73ffffffffffffffffffffffffffffffffffffffff161461178a576040517f08c379a00000000000000000000000000000000000000000000000000000000081526004016117819061331e565b60405180910390fd5b600073ffffffffffffffffffffffffffffffffffffffff168273ffffffffffffffffffffffffffffffffffffffff16036117f9576040517f08c379a00000000000000000000000000000000000000000000000000000000081526004016117f0906133b0565b60405180910390fd5b611804838383611dfc565b61180f60008261142c565b6001600360008573ffffffffffffffffffffffffffffffffffffffff1673ffffffffffffffffffffffffffffffffffffffff168152602001908152602001600020600082825461185f91906133d0565b925050819055506001600360008473ffffffffffffffffffffffffffffffffffffffff1673ffffffffffffffffffffffffffffffffffffffff16815260200190815260200160002060008282546118b69190612f86565b92505081905550816002600083815260200190815260200160002060006101000a81548173ffffffffffffffffffffffffffffffffffffffff021916908373ffffffffffffffffffffffffffffffffffffffff160217905550808273ffffffffffffffffffffffffffffffffffffffff168473ffffffffffffffffffffffffffffffffffffffff167fddf252ad1be2c89b69c2b068fc378daa952ba7f163c4a11628f55a4df523b3ef60405160405180910390a4611975838383611e01565b505050565b611982611424565b73ffffffffffffffffffffffffffffffffffffffff166119a0610e21565b73ffffffffffffffffffffffffffffffffffffffff16146119f6576040517f08c379a00000000000000000000000000000000000000000000000000000000081526004016119ed90613450565b60405180910390fd5b565b6000600760009054906101000a900473ffffffffffffffffffffffffffffffffffffffff16905081600760006101000a81548173ffffffffffffffffffffffffffffffffffffffff021916908373ffffffffffffffffffffffffffffffffffffffff1602179055508173ffffffffffffffffffffffffffffffffffffffff168173ffffffffffffffffffffffffffffffffffffffff167f8be0079c531659141344cd1fd0a4f28419497f9722a3daafe3b4186f6b6457e060405160405180910390a35050565b8173ffffffffffffffffffffffffffffffffffffffff168373ffffffffffffffffffffffffffffffffffffffff1603611b2c576040517f08c379a0000000000000000000000000000000000000000000000000000000008152600401611b23906134bc565b60405180910390fd5b80600560008573ffffffffffffffffffffffffffffffffffffffff1673ffffffffffffffffffffffffffffffffffffffff16815260200190815260200160002060008473ffffffffffffffffffffffffffffffffffffffff1673ffffffffffffffffffffffffffffffffffffffff16815260200190815260200160002060006101000a81548160ff0219169083151502179055508173ffffffffffffffffffffffffffffffffffffffff168373ffffffffffffffffffffffffffffffffffffffff167f17307eab39ab6107e8899845ad3d59bd9653f200f220920489ca2b5937696c3183604051611c1d919061241a565b60405180910390a3505050565b611c35848484611714565b611c4184848484611e06565b611c80576040517f08c379a0000000000000000000000000000000000000000000000000000000008152600401611c779061354e565b60405180910390fd5b50505050565b606060405180602001604052806000815250905090565b6060611ca8826113d9565b6000611cb2611c86565b90506000815111611cd25760405180602001604052806000815250611cfd565b80611cdc84611f8d565b604051602001611ced92919061316d565b6040516020818303038152906040525b915050919050565b60008073ffffffffffffffffffffffffffffffffffffffff166002600084815260200190815260200160002060009054906101000a900473ffffffffffffffffffffffffffffffffffffffff1673ffffffffffffffffffffffffffffffffffffffff1614159050919050565b611d8b8282604051806020016040528060008152506120ed565b5050565b611d9882611d05565b611dd7576040517f08c379a0000000000000000000000000000000000000000000000000000000008152600401611dce906135e0565b60405180910390fd5b80600660008481526020019081526020016000209081611df791906137ac565b505050565b505050565b505050565b6000611e278473ffffffffffffffffffffffffffffffffffffffff16612148565b15611f80578373ffffffffffffffffffffffffffffffffffffffff1663150b7a02611e50611424565b8786866040518563ffffffff1660e01b8152600401611e7294939291906138d3565b6020604051808303816000875af1925050508015611eae57506040513d601f19601f82011682018060405250810190611eab9190613934565b60015b611f30573d8060008114611ede576040519150601f19603f3d011682016040523d82523d6000602084013e611ee3565b606091505b506000815103611f28576040517f08c379a0000000000000000000000000000000000000000000000000000000008152600401611f1f9061354e565b60405180910390fd5b805181602001fd5b63150b7a0260e01b7bffffffffffffffffffffffffffffffffffffffffffffffffffffffff1916817bffffffffffffffffffffffffffffffffffffffffffffffffffffffff191614915050611f85565b600190505b949350505050565b606060008203611fd4576040518060400160405280600181526020017f300000000000000000000000000000000000000000000000000000000000000081525090506120e8565b600082905060005b60008214612006578080611fef90612fdc565b915050600a82611fff9190613961565b9150611fdc565b60008167ffffffffffffffff8111156120225761202161264a565b5b6040519080825280601f01601f1916602001820160405280156120545781602001600182028036833780820191505090505b5090505b600085146120e15760018261206d91906133d0565b9150600a8561207c9190613252565b60306120889190612f86565b60f81b81838151811061209e5761209d612e2a565b5b60200101907effffffffffffffffffffffffffffffffffffffffffffffffffffffffffffff1916908160001a905350600a856120da9190613961565b9450612058565b8093505050505b919050565b6120f7838361216b565b6121046000848484611e06565b612143576040517f08c379a000000000000000000000000000000000000000000000000000000000815260040161213a9061354e565b60405180910390fd5b505050565b6000808273ffffffffffffffffffffffffffffffffffffffff163b119050919050565b600073ffffffffffffffffffffffffffffffffffffffff168273ffffffffffffffffffffffffffffffffffffffff16036121da576040517f08c379a00000000000000000000000000000000000000000000000000000000081526004016121d1906139de565b60405180910390fd5b6121e381611d05565b15612223576040517f08c379a000000000000000000000000000000000000000000000000000000000815260040161221a90613a4a565b60405180910390fd5b61222f60008383611dfc565b6001600360008473ffffffffffffffffffffffffffffffffffffffff1673ffffffffffffffffffffffffffffffffffffffff168152602001908152602001600020600082825461227f9190612f86565b92505081905550816002600083815260200190815260200160002060006101000a81548173ffffffffffffffffffffffffffffffffffffffff021916908373ffffffffffffffffffffffffffffffffffffffff160217905550808273ffffffffffffffffffffffffffffffffffffffff16600073ffffffffffffffffffffffffffffffffffffffff167fddf252ad1be2c89b69c2b068fc378daa952ba7f163c4a11628f55a4df523b3ef60405160405180910390a461234060008383611e01565b5050565b6040518060600160405280600390602082028036833780820191505090505090565b6000604051905090565b600080fd5b600080fd5b60007fffffffff0000000000000000000000000000000000000000000000000000000082169050919050565b6123af8161237a565b81146123ba57600080fd5b50565b6000813590506123cc816123a6565b92915050565b6000602082840312156123e8576123e7612370565b5b60006123f6848285016123bd565b91505092915050565b60008115159050919050565b612414816123ff565b82525050565b600060208201905061242f600083018461240b565b92915050565b600081519050919050565b600082825260208201905092915050565b60005b8381101561246f578082015181840152602081019050612454565b8381111561247e576000848401525b50505050565b6000601f19601f8301169050919050565b60006124a082612435565b6124aa8185612440565b93506124ba818560208601612451565b6124c381612484565b840191505092915050565b600060208201905081810360008301526124e88184612495565b905092915050565b6000819050919050565b612503816124f0565b811461250e57600080fd5b50565b600081359050612520816124fa565b92915050565b60006020828403121561253c5761253b612370565b5b600061254a84828501612511565b91505092915050565b600073ffffffffffffffffffffffffffffffffffffffff82169050919050565b600061257e82612553565b9050919050565b61258e81612573565b82525050565b60006020820190506125a96000830184612585565b92915050565b6125b881612573565b81146125c357600080fd5b50565b6000813590506125d5816125af565b92915050565b600080604083850312156125f2576125f1612370565b5b6000612600858286016125c6565b925050602061261185828601612511565b9150509250929050565b612624816124f0565b82525050565b600060208201905061263f600083018461261b565b92915050565b600080fd5b7f4e487b7100000000000000000000000000000000000000000000000000000000600052604160045260246000fd5b61268282612484565b810181811067ffffffffffffffff821117156126a1576126a061264a565b5b80604052505050565b60006126b4612366565b90506126c08282612679565b919050565b600067ffffffffffffffff8211156126e0576126df61264a565b5b602082029050602081019050919050565b600080fd5b6000612709612704846126c5565b6126aa565b9050808382526020820190506020840283018581111561272c5761272b6126f1565b5b835b8181101561275557806127418882612511565b84526020840193505060208101905061272e565b5050509392505050565b600082601f83011261277457612773612645565b5b81356127848482602086016126f6565b91505092915050565b600080604083850312156127a4576127a3612370565b5b60006127b285828601612511565b925050602083013567ffffffffffffffff8111156127d3576127d2612375565b5b6127df8582860161275f565b9150509250929050565b60008060006060848603121561280257612801612370565b5b6000612810868287016125c6565b9350506020612821868287016125c6565b925050604061283286828701612511565b9150509250925092565b600060039050919050565b600081905092915050565b6000819050919050565b612865816124f0565b82525050565b6000612877838361285c565b60208301905092915050565b6000602082019050919050565b6128998161283c565b6128a38184612847565b92506128ae82612852565b8060005b838110156128df5781516128c6878261286b565b96506128d183612883565b9250506001810190506128b2565b505050505050565b60006060820190506128fc6000830184612890565b92915050565b60006020828403121561291857612917612370565b5b6000612926848285016125c6565b91505092915050565b7f4e487b7100000000000000000000000000000000000000000000000000000000600052602160045260246000fd5b6003811061296f5761296e61292f565b5b50565b60008190506129808261295e565b919050565b600061299082612972565b9050919050565b6129a081612985565b82525050565b60006020820190506129bb6000830184612997565b92915050565b6129ca816123ff565b81146129d557600080fd5b50565b6000813590506129e7816129c1565b92915050565b60008060408385031215612a0457612a03612370565b5b6000612a12858286016125c6565b9250506020612a23858286016129d8565b9150509250929050565b600080fd5b600067ffffffffffffffff821115612a4d57612a4c61264a565b5b612a5682612484565b9050602081019050919050565b82818337600083830152505050565b6000612a85612a8084612a32565b6126aa565b905082815260208101848484011115612aa157612aa0612a2d565b5b612aac848285612a63565b509392505050565b600082601f830112612ac957612ac8612645565b5b8135612ad9848260208601612a72565b91505092915050565b60008060008060808587031215612afc57612afb612370565b5b6000612b0a878288016125c6565b9450506020612b1b878288016125c6565b9350506040612b2c87828801612511565b925050606085013567ffffffffffffffff811115612b4d57612b4c612375565b5b612b5987828801612ab4565b91505092959194509250565b60008060408385031215612b7c57612b7b612370565b5b6000612b8a858286016125c6565b9250506020612b9b858286016125c6565b9150509250929050565b7f4e487b7100000000000000000000000000000000000000000000000000000000600052602260045260246000fd5b60006002820490506001821680612bec57607f821691505b602082108103612bff57612bfe612ba5565b5b50919050565b7f4552433732313a20617070726f76616c20746f2063757272656e74206f776e6560008201527f7200000000000000000000000000000000000000000000000000000000000000602082015250565b6000612c61602183612440565b9150612c6c82612c05565b604082019050919050565b60006020820190508181036000830152612c9081612c54565b9050919050565b7f4552433732313a20617070726f76652063616c6c6572206973206e6f7420746f60008201527f6b656e206f776e6572206e6f7220617070726f76656420666f7220616c6c0000602082015250565b6000612cf3603e83612440565b9150612cfe82612c97565b604082019050919050565b60006020820190508181036000830152612d2281612ce6565b9050919050565b6000604082019050612d3e6000830185612585565b612d4b6020830184612585565b9392505050565b7f4552433732313a2063616c6c6572206973206e6f7420746f6b656e206f776e6560008201527f72206e6f7220617070726f766564000000000000000000000000000000000000602082015250565b6000612dae602e83612440565b9150612db982612d52565b604082019050919050565b60006020820190508181036000830152612ddd81612da1565b9050919050565b600081905092915050565b50565b6000612dff600083612de4565b9150612e0a82612def565b600082019050919050565b6000612e2082612df2565b9150819050919050565b7f4e487b7100000000000000000000000000000000000000000000000000000000600052603260045260246000fd5b7f4552433732313a20696e76616c696420746f6b656e2049440000000000000000600082015250565b6000612e8f601883612440565b9150612e9a82612e59565b602082019050919050565b60006020820190508181036000830152612ebe81612e82565b9050919050565b7f4552433732313a2061646472657373207a65726f206973206e6f74206120766160008201527f6c6964206f776e65720000000000000000000000000000000000000000000000602082015250565b6000612f21602983612440565b9150612f2c82612ec5565b604082019050919050565b60006020820190508181036000830152612f5081612f14565b9050919050565b7f4e487b7100000000000000000000000000000000000000000000000000000000600052601160045260246000fd5b6000612f91826124f0565b9150612f9c836124f0565b9250827fffffffffffffffffffffffffffffffffffffffffffffffffffffffffffffffff03821115612fd157612fd0612f57565b5b828201905092915050565b6000612fe7826124f0565b91507fffffffffffffffffffffffffffffffffffffffffffffffffffffffffffffffff820361301957613018612f57565b5b600182019050919050565b6000819050919050565b61303781613024565b82525050565b600067ffffffffffffffff82169050919050565b61305a8161303d565b82525050565b600061ffff82169050919050565b61307781613060565b82525050565b600063ffffffff82169050919050565b6130968161307d565b82525050565b600060a0820190506130b1600083018861302e565b6130be6020830187613051565b6130cb604083018661306e565b6130d8606083018561308d565b6130e5608083018461308d565b9695505050505050565b6000815190506130fe816124fa565b92915050565b60006020828403121561311a57613119612370565b5b6000613128848285016130ef565b91505092915050565b600081905092915050565b600061314782612435565b6131518185613131565b9350613161818560208601612451565b80840191505092915050565b6000613179828561313c565b9150613185828461313c565b91508190509392505050565b7f4f776e61626c653a206e6577206f776e657220697320746865207a65726f206160008201527f6464726573730000000000000000000000000000000000000000000000000000602082015250565b60006131ed602683612440565b91506131f882613191565b604082019050919050565b6000602082019050818103600083015261321c816131e0565b9050919050565b7f4e487b7100000000000000000000000000000000000000000000000000000000600052601260045260246000fd5b600061325d826124f0565b9150613268836124f0565b92508261327857613277613223565b5b828206905092915050565b60006040820190506132986000830185612997565b6132a56020830184612585565b9392505050565b7f4552433732313a207472616e736665722066726f6d20696e636f72726563742060008201527f6f776e6572000000000000000000000000000000000000000000000000000000602082015250565b6000613308602583612440565b9150613313826132ac565b604082019050919050565b60006020820190508181036000830152613337816132fb565b9050919050565b7f4552433732313a207472616e7366657220746f20746865207a65726f2061646460008201527f7265737300000000000000000000000000000000000000000000000000000000602082015250565b600061339a602483612440565b91506133a58261333e565b604082019050919050565b600060208201905081810360008301526133c98161338d565b9050919050565b60006133db826124f0565b91506133e6836124f0565b9250828210156133f9576133f8612f57565b5b828203905092915050565b7f4f776e61626c653a2063616c6c6572206973206e6f7420746865206f776e6572600082015250565b600061343a602083612440565b915061344582613404565b602082019050919050565b600060208201905081810360008301526134698161342d565b9050919050565b7f4552433732313a20617070726f766520746f2063616c6c657200000000000000600082015250565b60006134a6601983612440565b91506134b182613470565b602082019050919050565b600060208201905081810360008301526134d581613499565b9050919050565b7f4552433732313a207472616e7366657220746f206e6f6e20455243373231526560008201527f63656976657220696d706c656d656e7465720000000000000000000000000000602082015250565b6000613538603283612440565b9150613543826134dc565b604082019050919050565b600060208201905081810360008301526135678161352b565b9050919050565b7f45524337323155524953746f726167653a2055524920736574206f66206e6f6e60008201527f6578697374656e7420746f6b656e000000000000000000000000000000000000602082015250565b60006135ca602e83612440565b91506135d58261356e565b604082019050919050565b600060208201905081810360008301526135f9816135bd565b9050919050565b60008190508160005260206000209050919050565b60006020601f8301049050919050565b600082821b905092915050565b6000600883026136627fffffffffffffffffffffffffffffffffffffffffffffffffffffffffffffffff82613625565b61366c8683613625565b95508019841693508086168417925050509392505050565b6000819050919050565b60006136a96136a461369f846124f0565b613684565b6124f0565b9050919050565b6000819050919050565b6136c38361368e565b6136d76136cf826136b0565b848454613632565b825550505050565b600090565b6136ec6136df565b6136f78184846136ba565b505050565b5b8181101561371b576137106000826136e4565b6001810190506136fd565b5050565b601f8211156137605761373181613600565b61373a84613615565b81016020851015613749578190505b61375d61375585613615565b8301826136fc565b50505b505050565b600082821c905092915050565b600061378360001984600802613765565b1980831691505092915050565b600061379c8383613772565b9150826002028217905092915050565b6137b582612435565b67ffffffffffffffff8111156137ce576137cd61264a565b5b6137d88254612bd4565b6137e382828561371f565b600060209050601f8311600181146138165760008415613804578287015190505b61380e8582613790565b865550613876565b601f19841661382486613600565b60005b8281101561384c57848901518255600182019150602085019450602081019050613827565b868310156138695784890151613865601f891682613772565b8355505b6001600288020188555050505b505050505050565b600081519050919050565b600082825260208201905092915050565b60006138a58261387e565b6138af8185613889565b93506138bf818560208601612451565b6138c881612484565b840191505092915050565b60006080820190506138e86000830187612585565b6138f56020830186612585565b613902604083018561261b565b8181036060830152613914818461389a565b905095945050505050565b60008151905061392e816123a6565b92915050565b60006020828403121561394a57613949612370565b5b60006139588482850161391f565b91505092915050565b600061396c826124f0565b9150613977836124f0565b92508261398757613986613223565b5b828204905092915050565b7f4552433732313a206d696e7420746f20746865207a65726f2061646472657373600082015250565b60006139c8602083612440565b91506139d382613992565b602082019050919050565b600060208201905081810360008301526139f7816139bb565b9050919050565b7f4552433732313a20746f6b656e20616c7265616479206d696e74656400000000600082015250565b6000613a34601c83612440565b9150613a3f826139fe565b602082019050919050565b60006020820190508181036000830152613a6381613a27565b905091905056fea26469706673582212202d802804db2a91c8e26ec8737c733b0e94d77a387e17168a46d2f40fc35e1d1564736f6c634300080f0033",
  "devdoc": {
    "kind": "dev",
    "methods": {
      "approve(address,uint256)": {
        "details": "See {IERC721-approve}."
      },
      "balanceOf(address)": {
        "details": "See {IERC721-balanceOf}."
      },
      "getApproved(uint256)": {
        "details": "See {IERC721-getApproved}."
      },
      "isApprovedForAll(address,address)": {
        "details": "See {IERC721-isApprovedForAll}."
      },
      "name()": {
        "details": "See {IERC721Metadata-name}."
      },
      "owner()": {
        "details": "Returns the address of the current owner."
      },
      "ownerOf(uint256)": {
        "details": "See {IERC721-ownerOf}."
      },
      "renounceOwnership()": {
        "details": "Leaves the contract without owner. It will not be possible to call `onlyOwner` functions anymore. Can only be called by the current owner. NOTE: Renouncing ownership will leave the contract without an owner, thereby removing any functionality that is only available to the owner."
      },
      "safeTransferFrom(address,address,uint256)": {
        "details": "See {IERC721-safeTransferFrom}."
      },
      "safeTransferFrom(address,address,uint256,bytes)": {
        "details": "See {IERC721-safeTransferFrom}."
      },
      "setApprovalForAll(address,bool)": {
        "details": "See {IERC721-setApprovalForAll}."
      },
      "supportsInterface(bytes4)": {
        "details": "See {IERC165-supportsInterface}."
      },
      "symbol()": {
        "details": "See {IERC721Metadata-symbol}."
      },
      "tokenURI(uint256)": {
        "details": "See {IERC721Metadata-tokenURI}."
      },
      "transferFrom(address,address,uint256)": {
        "details": "See {IERC721-transferFrom}."
      },
      "transferOwnership(address)": {
        "details": "Transfers ownership of the contract to a new account (`newOwner`). Can only be called by the current owner."
      }
    },
    "version": 1
  },
  "userdoc": {
    "kind": "user",
    "methods": {},
    "version": 1
  },
  "storageLayout": {
    "storage": [
      {
        "astId": 285,
        "contract": "contracts/RandomIpfsNFT.sol:RandomIpfsNFT",
        "label": "_name",
        "offset": 0,
        "slot": "0",
        "type": "t_string_storage"
      },
      {
        "astId": 287,
        "contract": "contracts/RandomIpfsNFT.sol:RandomIpfsNFT",
        "label": "_symbol",
        "offset": 0,
        "slot": "1",
        "type": "t_string_storage"
      },
      {
        "astId": 291,
        "contract": "contracts/RandomIpfsNFT.sol:RandomIpfsNFT",
        "label": "_owners",
        "offset": 0,
        "slot": "2",
        "type": "t_mapping(t_uint256,t_address)"
      },
      {
        "astId": 295,
        "contract": "contracts/RandomIpfsNFT.sol:RandomIpfsNFT",
        "label": "_balances",
        "offset": 0,
        "slot": "3",
        "type": "t_mapping(t_address,t_uint256)"
      },
      {
        "astId": 299,
        "contract": "contracts/RandomIpfsNFT.sol:RandomIpfsNFT",
        "label": "_tokenApprovals",
        "offset": 0,
        "slot": "4",
        "type": "t_mapping(t_uint256,t_address)"
      },
      {
        "astId": 305,
        "contract": "contracts/RandomIpfsNFT.sol:RandomIpfsNFT",
        "label": "_operatorApprovals",
        "offset": 0,
        "slot": "5",
        "type": "t_mapping(t_address,t_mapping(t_address,t_bool))"
      },
      {
        "astId": 1273,
        "contract": "contracts/RandomIpfsNFT.sol:RandomIpfsNFT",
        "label": "_tokenURIs",
        "offset": 0,
        "slot": "6",
        "type": "t_mapping(t_uint256,t_string_storage)"
      },
      {
        "astId": 154,
        "contract": "contracts/RandomIpfsNFT.sol:RandomIpfsNFT",
        "label": "_owner",
        "offset": 0,
        "slot": "7",
        "type": "t_address"
      },
      {
        "astId": 2028,
        "contract": "contracts/RandomIpfsNFT.sol:RandomIpfsNFT",
        "label": "s_requestIdToSender",
        "offset": 0,
        "slot": "8",
        "type": "t_mapping(t_uint256,t_address)"
      },
      {
        "astId": 2030,
        "contract": "contracts/RandomIpfsNFT.sol:RandomIpfsNFT",
        "label": "s_tokenCounter",
        "offset": 0,
        "slot": "9",
        "type": "t_uint256"
      },
      {
        "astId": 2038,
        "contract": "contracts/RandomIpfsNFT.sol:RandomIpfsNFT",
        "label": "s_characterUris",
        "offset": 0,
        "slot": "10",
        "type": "t_array(t_string_storage)dyn_storage"
      }
    ],
    "types": {
      "t_address": {
        "encoding": "inplace",
        "label": "address",
        "numberOfBytes": "20"
      },
      "t_array(t_string_storage)dyn_storage": {
        "base": "t_string_storage",
        "encoding": "dynamic_array",
        "label": "string[]",
        "numberOfBytes": "32"
      },
      "t_bool": {
        "encoding": "inplace",
        "label": "bool",
        "numberOfBytes": "1"
      },
      "t_mapping(t_address,t_bool)": {
        "encoding": "mapping",
        "key": "t_address",
        "label": "mapping(address => bool)",
        "numberOfBytes": "32",
        "value": "t_bool"
      },
      "t_mapping(t_address,t_mapping(t_address,t_bool))": {
        "encoding": "mapping",
        "key": "t_address",
        "label": "mapping(address => mapping(address => bool))",
        "numberOfBytes": "32",
        "value": "t_mapping(t_address,t_bool)"
      },
      "t_mapping(t_address,t_uint256)": {
        "encoding": "mapping",
        "key": "t_address",
        "label": "mapping(address => uint256)",
        "numberOfBytes": "32",
        "value": "t_uint256"
      },
      "t_mapping(t_uint256,t_address)": {
        "encoding": "mapping",
        "key": "t_uint256",
        "label": "mapping(uint256 => address)",
        "numberOfBytes": "32",
        "value": "t_address"
      },
      "t_mapping(t_uint256,t_string_storage)": {
        "encoding": "mapping",
        "key": "t_uint256",
        "label": "mapping(uint256 => string)",
        "numberOfBytes": "32",
        "value": "t_string_storage"
      },
      "t_string_storage": {
        "encoding": "bytes",
        "label": "string",
        "numberOfBytes": "32"
      },
      "t_uint256": {
        "encoding": "inplace",
        "label": "uint256",
        "numberOfBytes": "32"
      }
    }
  }
}